:020000040800F2
:10000000D809002079020008532F0008CF2A0008E1
:10001000512F00088904000849350008000000003D
:10002000000000000000000000000000572F000842
:100030000905000800000000552F0008592F00088E
:10004000930200089302000893020008930200083C
:10005000930200089302000893020008930200082C
:10006000930200089302000893020008930200081C
:100070008D04000893020008990400089302000808
:10008000930200089302000871040008930200081C
:1000900093020008930200089302000893020008EC
:1000A00093020008930200089302000893020008DC
:1000B00093020008930200089302000893020008CC
:1000C00093020008930200089302000893020008BC
:1000D0009302000893020008930200083D350008CF
:1000E000930200089302000893020008930200089C
:1000F0009302000893020008930200087D040008A0
:10010000930200089302000893020008930200087B
:10011000DD2F0008E92F0008D12F00089302000806
:10012000930200089302000893020008930200085B
:10013000930200089302000893020008930200084B
:10014000930200089302000893020008930200083B
:10015000930200089302000893020008930200082B
:10016000930200089302000893020008930200081B
:10017000930200089302000893020008930200080B
:1001800093020008930200089302000893020008FB
:100190009302000800000000930200089302000888
:1001A00093020008930200089302000893020008DB
:1001B00093020008930200089302000893020008CB
:1001C00093020008930200089302000893020008BB
:1001D000930200089302000800F002F800F03CF8D7
:1001E0000AA090E8000C82448344AAF10107DA4592
:1001F00001D100F031F8AFF2090EBAE80F0013F0A8
:10020000010F18BFFB1A43F001031847D433000055
:10021000F4330000103A24BF78C878C1FAD85207E6
:1002200024BF30C830C144BF04680C607047000070
:100230000023002400250026103A28BF78C1FBD8EF
:10024000520728BF30C148BF0B6070471FB503F08D
:10025000A1F91FBD10B510BD00F0CFF81146FFF792
:10026000F5FF03F082F900F0EDF803B4FFF7F2FFB9
:1002700003BC00F0F5F80000094880470948004732
:10028000FEE7FEE7FEE7FEE7FEE7FEE7FEE7FEE746
:10029000FEE7FEE704480549054A064B70470000A3
:1002A000C12F0008D9010008D8030020D809002078
:1002B000D8050020D805002053EA020C00F0698020
:1002C0002DE9F04B4FF00006002B1FBFB3FA83F56A
:1002D00003FA05F424FA05F65E4012BF1643B2FA9B
:1002E00082F502FA05F4C5F120051EBF22FA05FCCD
:1002F00044EA0C04203556EA044C4FEA144418BF73
:10030000641C4FF000084FF00009904271EB030CA1
:1003100039D3002919BFB1FA81F701FA07F6B0FA0B
:1003200080F700FA07F6C7F120071EBF20FA07FC86
:1003300046EA0C062037B6FBF4FCA7EB0507103F96
:1003400007F01F0BCBF120060CFA0BFB2CFA06F67C
:1003500044BFB3460026202FA4BF5E464FF0000BDB
:100360005BEA060C08BF4FF0010B19EB0B09ABFB66
:10037000027C48EB0608C01B06FB02CC0BFB03CC3F
:1003800071EB0C01C1E70B46024641464846BDE809
:10039000F08B13B54FF000004FF00001AFF3008079
:1003A000BDE81C4070474FF0000200B5134694466C
:1003B0009646203922BFA0E80C50A0E80C50B1F1BD
:1003C0002001BFF4F7AF090728BFA0E80C5048BFD1
:1003D0000CC05DF804EB890028BF40F8042B08BF6F
:1003E000704748BF20F8022B11F0804F18BF00F86B
:1003F000012B7047704770477047754600F02CF826
:10040000AE4605006946534620F00700854618B001
:1004100020B5FFF73FFFBDE820404FF000064FF04A
:1004200000074FF000084FF0000B21F00701AC4629
:10043000ACE8C009ACE8C009ACE8C009ACE8C00948
:100440008D46704710B50446AFF300802046BDE8E6
:100450001040FFF70ABF00000048704778030020F3
:1004600001491820ABBEFEE72600020070470000DD
:10047000014800F039BB000010000020014800F0E6
:1004800033BB00007C000020FEE70000014801F0C3
:1004900046B80000E8000020014801F040B8000024
:1004A000480100200D4902688A4201D20C4901E04E
:1004B0000B492031D2B21423083AB2FBF3F2436C59
:1004C00002F01F0223F003031944816404498031C0
:1004D000C164012191400165704700000804024099
:1004E000000802400179074A02EB81024265054A91
:1004F0004432491E826501F01F0201219140C1650D
:1005000070470000FC080240704772B6FEE7704773
:1005100070477047704770472DE9F04F044690F8D8
:1005200058009BB00F464FF0000B012812D001205D
:1005300084F8580000261796189620684FF0A048B7
:10054000DFF81C91DFF81CA1474D404506D1284635
:10055000009508E002201BB0BDE8F08F48450AD1A5
:100560005046CDF800A002F0C1FA0090206802F0D9
:10057000BDFA40B109E0E06D40F02000E06584F88C
:1005800058600120E7E7009850B1E06D40F020008E
:10059000E0654FF0010B00BF84F858605846DAE779
:1005A00020684146884201D0A84201D12F4800E08E
:1005B0002F48D7F800C02F4B40F61F72BCF1000F38
:1005C0002DD0D0F808C094F838802CF4604C4CEA58
:1005D000483CD7F804804CEA080CC0F808C0D4F8AE
:1005E00000C08C4501D0AC4504D18968AB6801F0EE
:1005F000010109E0D9F80810DAF8085001F001010A
:1006000005F001059B68294303F001031943C3D199
:10061000BB68396819438368934319431DE08768B1
:1006200027F46047876027688F4201D0AF4204D12A
:100630008968AB6801F0010109E0D9F80810DAF81F
:10064000085001F0010105F001059B68294303F002
:1006500001031943A0D18168914381609CE70000A8
:10066000000400500005005000010050000300503D
:1006700000070050000600502DE9F84F00270446FF
:10068000009790F85800DFF81C840D46B946012801
:1006900011D0012684F85860206802F023FA60B176
:1006A000E06D40F02000E0655FF0010784F85890AD
:1006B0003846BDE8F88F0220FBE7D5E900210C237E
:1006C000206803EA91131844036B01F01F014FF0F7
:1006D0001F0C0CFA01FCC2F3846223EA0C038A406B
:1006E00013430363206802F0FDF98246206802F09C
:1006F000F5F95AEA00003CD1AA6829682068B2F1ED
:10070000004F37D002F0FEF92068416921F0004126
:10071000416120686969C268C2F3C1025200914018
:100720002A69042A31D000EB82002B68026EDFF8C0
:1007300078C303F0F84302EA0C020B431A4342F079
:100740000041016622682869A96902EB8000026EF7
:1007500022F080720A430266297F226828690129F3
:1007600010D0002102EB8000026E22F000720A43DA
:1007700002667DE0002202F0C5F92068416941F07F
:100780000041C5E74FF00071ECE7002102F0A0F94D
:10079000400320684FF0000172D002F099F990FAFE
:1007A000A0F0B0FA80F1286842036ED090FAA0F071
:1007B000B0FA80F0814204D100221146206802F094
:1007C000B0F90121206802F083F9400320684FF05E
:1007D00001015DD002F07CF990FAA0F0B0FA80F14E
:1007E0002868420359D090FAA0F0B0FA80F0814214
:1007F00004D100220121206802F093F9022120682F
:1008000002F066F9400320684FF0020148D002F080
:100810005FF990FAA0F0B0FA80F12868420344D062
:1008200090FAA0F0B0FA80F0814204D100220221B7
:10083000206802F076F90321206802F049F94003AC
:1008400020684FF0030133D002F042F990FAA0F093
:10085000B0FA80F1286842032FD090FAA0F0B0FAE5
:1008600080F0814204D100220321206802F059F96E
:100870002068816811F0010F22D0ACE000E004E0B4
:1008800002F026F9C0F384618DE7C0F3846091E73C
:1008900002F01EF9C0F38461A2E7C0F38460A6E70A
:1008A00002F016F9C0F38461B7E7C0F38460BBE7D8
:1008B00002F00EF9C0F38461CCE7C0F38460D0E7A6
:1008C0002A7B296850F8B03FC1F3120C23EA0C03CD
:1008D00002F0180C754A22FA0CF20A401343036026
:1008E000E968414577D1286841031CD090FAA0F10E
:1008F000B1FA81F1491C01F01F0109294FEA403189
:1009000032D8002912D000BF90FAA0F1B1FA81F1DB
:1009100001F1010101F01F0106FA01F609D100BF42
:10092000C0F3846109E0C0F38461E3E7C0F384614C
:10093000EEE790FAA0F1B1FA81F101F1010101F0C5
:100940001F0146EA816102D1C0F3846003E090FA9E
:10095000A0F0B0FA80F000F1010000F01F0000EB01
:10096000400041EA005132E000290ED090FAA0F197
:10097000B1FA81F101F1010101F01F0106FA01F65E
:1009800006D100BFC0F3846106E0C0F38461F1E7E3
:1009900090FAA0F1B1FA81F101F1010101F01F011A
:1009A00046EA816102D1C0F3846003E090FAA0F0CE
:1009B000B0FA80F000F1010000F01F003C4A00EBAB
:1009C000400002EB005041EA000141F00071AA68CA
:1009D000206802F097F837482B6803423FF466AE70
:1009E00021684FF0A04C3448344E354D614501D05C
:1009F000A94201D1024600E032469268DFF8C48085
:100A000002F0E072434503D0DFF8BC80434521D1BA
:100A10005FEA02281ED4614506D02C4B99427FF430
:100A200045AEA94200D0304642F40001826822F06F
:100A3000E0720A438260264826490068B0FBF1F064
:100A4000401C00EB4000800000E0401E00900028A9
:100A5000FBD12BE6DFF8808043450FD15FEAC21857
:100A60000CD4A94202D11D4B9942F2D0614502D06B
:100A7000A94200D0304642F080710CE0DFF860807F
:100A80004345E6D15302E4D4A942E2D0614500D007
:100A9000304642F48001826822F0E0720A438260AC
:100AA00004E6000000007F4000F0FF03FFFF0700A6
:100AB000000020FE000008800003005000070050E6
:100AC00000010050000021C31000C090000600503B
:100AD0000C000020400D0300000052C7000500502C
:100AE000000084CB704770472DE9F84F044600683A
:100AF000066845684FF0A048DFF89092404501D065
:100B0000484501D1A24800E0A248806800F01F07D4
:100B1000B0070ED5A8070CD5E06DC00603D4E06D74
:100B200040F40060E0652046FFF7F1FC21680220F8
:100B30000860DFF864B2DFF864A2700701D56807C7
:100B400003D430073FD528073DD5E06DC00603D458
:100B5000E06D40F40070E065206801F0CBFF60B309
:100B60002068484501D1424604E0584501D152462B
:100B700000E00246824208D03FB1052F05D0092F80
:100B800003D0484503D1414606E0C16805E0584519
:100B900001D1514600E00146C96889040DD40168BD
:100BA00009070AD501F09EFF58B3E06D40F0100030
:100BB000E065206E40F0010020662046FFF792FFBE
:100BC00021680C200860B00601D5A80603D4700681
:100BD0005FD568065DD5E06DC00603D4E06D40F4D6
:100BE0000050E0652068C16C11F4C07F1AD000216C
:100BF000009101F07FFF02462068484514D143462A
:100C000017E02068416821F00C014160E06D20F49C
:100C10008070E065E06DC004CFD4E06D40F001006D
:100C2000E065CAE70121E3E7584501D1534600E0FA
:100C30000346834208D03FB1062F05D0072F03D0CB
:100C4000484503D1414606E0C16805E0584501D159
:100C5000514600E00146C968009BA3B18B0102D553
:100C60008AB18A040FD4026852060CD589020AD4CC
:100C700001F034FFF0B3E06D40F01000E065206E4D
:100C800040F0010020662046FFF742FC216860200A
:100C9000086030060BD5280609D5E06D40F4803099
:100CA000E065204600F094F9216880200860F00596
:100CB0000CD5E8050AD5E06D40F40030E06520462B
:100CC000FFF728FC21684FF480700860B0050CD550
:100CD000A8050AD5E06D40F48020E0652046FFF7C6
:100CE0001AFC21684FF400700860F00631D5E80660
:100CF0002FD500E009E0E06BE8B12068EFB3404594
:100D000001D0484512D1224811E02068416821F005
:100D100060014160E06D20F48050E065E06DC00549
:100D2000B1D4E06D40F00100E065ACE7194880689F
:100D300000F4604050B1E06D40F48060E065206EEA
:100D400040F0020020662046FFF7CDFE216810200B
:100D50000860700517D5680515D5E06D40F4804032
:100D6000E065206E40F00800206621684FF4806046
:100D700008602046BDE8F84F00E001E0FFF7C9BB7E
:100D8000C068C007D6E7BDE8F88F0000000100503A
:100D90000003005000070050000500500004005000
:100DA000F8B54FF0000504002E46009502D0E06D26
:100DB00010B107E00120F8BD204600F00BF92666CF
:100DC00084F8586020688168C1F3407119B1816866
:100DD000734A1140816020688168C1F3007189B94C
:100DE0008168704A114041F0805181606E486F49BE
:100DF0000068B0FBF1F04000801C00E0401E009055
:100E00000028FBD120688168C1F3007141B9E16D10
:100E100041F01001E165216E41F0010121660125DB
:100E200001F060FEE16DC90600D430B1E06D40F024
:100E30001000E06501252846F8BDE06D20F48070C3
:100E400040F00200E0652068816811F0010F27D1B1
:100E50004FF0A043564A984201D0904204D199687D
:100E6000966801F001010AE052498968524E01F08A
:100E70000101B66806F001063143504EB66806F02F
:100E8000010631430CD1984201D0904201D14C4827
:100E900000E04C486168826822F47C120A43826058
:100EA000E168E06B627F0843A16841EA4231084390
:100EB00094F8241040EA0140012904D1218D424ACE
:100EC00002EB41410843E16A29B101F47871226BD8
:100ED000014342EA01002268D1683C4B19400143BA
:100EE000D16020680169626B21F0406111430161AA
:100EF000206801F0F3FD70BB207F94F83810226861
:100F0000800340EA4100D16844F20203994301435F
:100F1000D16020690028206801690AD041F480313D
:100F20000161206850F8C01F22696FF30D01114361
:100F300007E021F480310161206850F8C01F6FF391
:100F40000D01016094F8400001280CD0206801696F
:100F500021F001010161606901282068016B21F025
:100F60000F0111D013E0D4E911010843D4E91312A1
:100F70001143084321680A6940F2FC739A43104305
:100F800040F001000861E6E7226A521E1143016346
:100F9000E06D20F0020040F00100E0654BE700004A
:100FA000C0FFFF5FC0FFFF7F0C000020400D03006B
:100FB00000010050000400500005005000060050E1
:100FC00000030050000700500000FEFF0740F0FF44
:100FD000704700002DE9F0439BB00646142115A888
:100FE000FFF7E1F954216846FFF7DDF9574930680A
:100FF0000025574C03274FF080084FF48069884242
:101000005DD1C001009080031190684600F06CFD36
:1010100008B1FFF77AFAE06C40F40050E064E06C4D
:1010200000F400501A90E06C40F00100E064E06CC5
:1010300000F001001A90E06C40F00400E064E06C05
:1010400000F004001A90E06C40F00200E064E06CF4
:10105000179500F002001A90CDE91587444615A9AE
:101060004FF0904000F018FB30201795CDE91507A0
:1010700015A9384800F010FB04201795CDE9150795
:1010800015A9354800F008FB354F34483860242056
:10109000C7E90105C7E90354C7E90559FD613846A9
:1010A0003D6200F099FA08B1FFF72FFA7765002248
:1010B00011461220BE6200F07FFC122041E0294957
:1010C000884240D180010090C0031290684600F031
:1010D0000BFD08B1FFF719FAE06C40F48040E064C2
:1010E000E06C00F480401A90E06C40F01000E06486
:1010F000E06C179500F010001A904FF4F060CDE905
:10110000150715A9184800F0C7FA154C13486034A4
:10111000283020602520C4E90105C4E90358C4E94A
:101120000559E5612046256200F056FA08B1FFF73F
:10113000ECF97465002211462F20A66200F03CFCF9
:101140002F2000F02BFC1BB0BDE8F0830001005005
:101150000010024000080048000400481C00024043
:10116000E800002000040050001000487047000014
:101170002DE9F04790460D4604004FF0000A0FD0CD
:1011800075B1607901280ED04FF0010984F80590FF
:1011900002202071A96808F01006042905D04AE051
:1011A0000120BDE8F0870220FBE700F09FFB074627
:1011B0005FEA08004FF0030809D022E000F096FB38
:1011C000C01B012803D92068406B000411D420689B
:1011D000406B0004F2D42168686A086418E000BF1C
:1011E00000F084FBC01B01280BD92068406B00284D
:1011F00007DA206940F00800206184F804800320A9
:10120000CFE72068406B0028EADB2168686A486401
:101210002068816C40F2FF32B2409143AA6AB2402A
:10122000114381642068C16CFF22B2409143EA6A95
:10123000B2401143C164E869012808D12268916B6A
:101240001F20B0408143286AB04008439063206863
:10125000C06B0721B1408843A969012903D0022945
:1012600057D06969F1B300216B69AA681A430A4330
:101270004FF4807101FA06F398432B79012B00D0CB
:10128000002111434FF4007202FA06F398436B7980
:10129000012B00D0002220F44047286842EA0108D0
:1012A000022838D057EA0007216808FA06F03843C8
:1012B000C863206801684FF48042B24091430160E6
:1012C0002268116840F6FE70B0408143E868B04083
:1012D0000843106020680168C022B2409143016059
:1012E000287B00E015E0297CC0F3830001F03C017D
:1012F00040EA811021680A6E40F60F73B3409A43AA
:10130000B04002430A6684F80490002060715046A1
:1013100047E70121A8E700F055FE0649884202D9B7
:1013200047F40047C0E704498842BDD947F48047E5
:10133000BAE700000068890900B4C40470472DE9C9
:10134000F041044600680668456BB1044FF004079D
:1013500010D5A9040ED52771216941F00101216141
:10136000F90241632068016821F480510160204640
:10137000FFF7E4FFB00014D5A80012D5277120694B
:1013800040F00200206121684FF00050486320685F
:10139000016821F0805101602046BDE8F041FFF76F
:1013A000E5BEBDE8F08170B5040003D020790025CA
:1013B00010B105E0012070BD6571204600F008F80D
:1013C00002202071256101202071002070BD0000E5
:1013D00010B586B0044614216846FEF7E4FF1549AF
:1013E0002068884223D11448C16C41F48031C16423
:1013F000C16C01F480310591C16C41F00101C164FF
:10140000C06C694600F00100059030200090032078
:101410000190002002904FF0904000F03DF9002232
:101420001146362000F0C8FA362000F0B7FA06B0B0
:1014300010BD0000000800500010024010B590F8E8
:10144000253000210122022B03D00421C163012198
:1014500022E003681C6824F00E041C60836C1C6886
:1014600024F480741C6003681C6824F001041C6070
:1014700090F84430046C03F01F0302FA03F3636036
:10148000D0E913345C60436D33B11C6824F480747C
:101490001C60D0E916345C6080F82520002280F8BA
:1014A0002420084610BD70B590F8252000240121A5
:1014B0002346022A07D00422C26380F8251080F850
:1014C0002430012429E00268156825F00E05156016
:1014D0000268156825F001051560826C156825F411
:1014E0008075156090F84420056C02F01F0201FA27
:1014F00002F26A60D0E913255560426D32B1156879
:1015000025F480751560D0E91625556080F8251002
:1015100080F82430816B01B18847204670BDF0B45B
:10152000016C0C6801680D6890F8442002F01F06F9
:10153000042202FA06F3234211D06B070FD50B6881
:101540009B0603D40B6823F004030B6090F844104F
:1015500001F01F018A40016C4A60016B1DE002230B
:1015600003FA06F727424FF0000C4FF0010218D0A3
:10157000AF0716D50C68A40605D40C6824F00A043D
:101580000C6080F8252090F8441001F01F018B407A
:10159000016C4B6080F824C0C16A00291AD0F0BCED
:1015A00008470823B340234214D02B0712D50B68F9
:1015B00023F00E030B6090F84410036C01F01F0140
:1015C00002FA01F15960C26380F8252080F824C036
:1015D000416BE2E7F0BC704770B504000CD02B4AB9
:1015E00021681420914209D2294A0A44B2FBF0F042
:1015F0008000606427480AE0012070BD234A5242FF
:101600000A44B2FBF0F0800060642048083820648F
:10161000022084F825000A6847F6F0708243D4E976
:1016200002031843D4E904352B431843A369184334
:10163000E3691843236A1843104308602046FEF705
:1016400031FFA0680025B0F5804F00D16560A16C26
:1016500020790860D4E9130141606068401E0328C6
:1016600008D82046FEF73EFF606D0560D4E91601FC
:10167000416002E06565A565E565E563012084F8E4
:10168000250084F82450002070BD000008040240AA
:10169000F8FFFDBF000002402DE9F04FDFF8209277
:1016A000002301260324A9F1040B85B00F2709F1BB
:1016B000040AABF1040EFAE006FA03F52A407CD0E6
:1016C00091F804C00CF0030CBCF1010F02D0BCF186
:1016D000020F26D1D0F808C0CDF800C04FEA430C65
:1016E00004FA0CF8CDF810C0DDF800C02CEA080CA4
:1016F000CDF800C0D1F80C80DDF810C008FA0CF865
:10170000DDF800C048EA0C08C0F80880D0F804C032
:101710002CEA050C0D79C5F300159D4045EA0C0532
:1017200045600D79ED43AD070ED0C5684FEA43081B
:1017300004FA08FC25EA0C05D1F808C00CFA08FCEC
:101740004CEA050CC0F80CC00D7905F00305022D1C
:1017500016D1DD0800EB850CCDF808C0DCF8208040
:101760005D074FEAD56C07FA0CF528EA05080D6904
:1017700005FA0CF5DDF808C045EA0805CCF820505C
:1017800005684FEA430CCDF808C004FA0CFC25EAC2
:101790000C0591F804C00CF00308DDF808C008FA45
:1017A0000CF848EA0508C0F800804D6815F4403F81
:1017B0007CD0444DD5F860C000E077E04CF0010CDF
:1017C000C5F860C02D6E23F0030C05F001050095EF
:1017D0003D4D65440295AD684FEA837C4FEA1C7825
:1017E00007FA08FC25EA0C05B0F1904F06D0DFF8A7
:1017F000DCC0604505D14FF0010C20E04FF0000C3B
:101800001DE0DFF8CCC0604502D14FF0020C16E0BD
:10181000DFF8C0C0604502D14FF0030C0FE0DFF8E5
:10182000B8C0604502D14FF0040C08E0DFF8ACC04E
:10183000604502D14FF0050C01E04FF0060C0CFAA8
:1018400008FC4CEA050C029DC5F808C0D9F8005008
:10185000CC46D1F8048095435FEAC82800D51543EB
:10186000CCF80050DAF80050D446D1F80480954303
:101870005FEA882800D51543CCF80050DBF800500B
:10188000DC46D1F8048095435FEA883800D51543DB
:10189000CCF80050DEF80050F446D1F804809543AF
:1018A0005FEAC83800D51543CCF800505B1C0A68C5
:1018B00032FA03F57FF400AF05B0BDE8F08F000009
:1018C00008040140001002400000014000040048EC
:1018D00000080048000C00480010004800140048B0
:1018E0000AB18161704781627047000001488068D9
:1018F00070470000000000200248816842681144DF
:10190000816070470000002010B50024032000F023
:1019100073F80F2000F008F808B1012401E000F08E
:1019200025F8204610BD000070B50E4E0546002477
:10193000706898B14FF47A71B1FBF0F00A49096808
:10194000B1FBF0F000F0A2FD40B9102D06D200224C
:101950002946501E00F030F8356000E00124204692
:1019600070BD0000000000200C0000200A4882B07A
:10197000016E41F001010166016E01F0010100916B
:10198000816D41F080518165806D00F08050009044
:1019900002B000F0A1B8000000100240002809DBEE
:1019A00000F01F02012191404009800000F1E02079
:1019B000C0F8001170470000F0B40E4B1B680C46D5
:1019C000C3F30223C3F10705042D00D90425191D13
:1019D000072901D2002300E0DB1E012606FA05F1EB
:1019E000491E214099409E40761E16403143F0BC6E
:1019F00001F0ABBD0CED00E0064900F007020868FD
:101A00004FF6FF03184040EA0220034A10430860E3
:101A1000704700000CED00E00000FA052B492C4B4C
:101A20000A6832214A432B4940B1B0F5007F08686B
:101A300029D020F4C06040F480602CE00868C0F336
:101A40004120022804D051F8800F20F4807022E059
:101A5000D1F8800020F48070C1F88000086820F47C
:101A6000C06040F400700860B2FBF3F0401C00E07E
:101A7000401E4A69520501D50028F9D14869400540
:101A80000AD503207047C0F34120022806D051F840
:101A9000800F40F48070086000207047D1F880000B
:101AA00040F48070C1F88000086820F4C06040F401
:101AB00000700860B2FBF3F0401C00E0401E4A6971
:101AC0005205DBD50028F9D1D8E700000C00002032
:101AD00040420F00007000400248816841F480419C
:101AE00081607047007000402DE9F84304460068AB
:101AF0000026BB4D00035ED5A86D0027C00008D4AA
:101B0000A86D40F08050A865A86D012700F08050B6
:101B10000090DFF8D092D9F8001041F48071C9F834
:101B20000010FFF7E3FE804606E000BFFFF7DEFE91
:101B3000A0EB080002282BD8D9F80000C005F5D585
:101B4000D5F8900010F4407014D0216D814211D06E
:101B5000D5F89000D5F8901020F4407041F4803111
:101B6000C5F89010D5F8901021F48031C5F8901088
:101B7000C5F89000C00711D0FFF7B8FE804641F2CB
:101B8000883907E0FFF7B2FEA0EB0801494501D90B
:101B900003260BE0D5F890008007F3D5D5F8900028
:101BA000216D20F440700843C5F890001FB1A86D66
:101BB00020F08050A8652078C00707D0D5F88800AD
:101BC000616820F003000843C5F88800207880078A
:101BD00007D5D5F88800A16820F00C000843C5F8A7
:101BE00088002078400707D5D5F88800E16820F004
:101BF00030000843C5F888002078000707D5D5F8DD
:101C00008800216920F0C0000843C5F888002078CA
:101C1000C00607D5D5F88800616920F440700843F4
:101C2000C5F888002078800607D5D5F88800A16916
:101C300020F440600843C5F888002078400607D5A6
:101C4000D5F88800E16920F440500843C5F88800C1
:101C50002078000607D5D5F88800216A20F4404096
:101C60000843C5F888002088C00507D5D5F8880046
:101C7000616A20F440300843C5F88800206880037A
:101C800007D5D5F89C00A16A20F003000843C5F8E9
:101C90009C002088800507D5D5F88800E16A20F4EB
:101CA00040200843C5F88800208840050FD5D5F8A6
:101CB0008800216B20F440100843C5F88800206B91
:101CC000B0F5801F03D1E86840F48010E8602088F8
:101CD00000050FD5D5F88800616B20F4400008435B
:101CE000C5F88800606BB0F5800F03D1E86840F458
:101CF0008010E8602088C0040FD5D5F88800A16B5B
:101D000020F040700843C5F88800A06BB0F1807FD8
:101D100003D1E86840F48010E86020884FF000614B
:101D200080040ED5D5F88800E26B20F040601043A7
:101D3000C5F88800E06B884203D1E86840F4801061
:101D4000E860208840040ED5D5F88800226C20F089
:101D500040601043C5F88800206C884203D1E868D1
:101D600040F48010E860208800040FD5D5F8880082
:101D7000616C20F040500843C5F88800606CB0F1F9
:101D8000805F03D1E86840F48030E8602068C003D9
:101D90000FD5D5F88800A16C20F040400843C5F865
:101DA0008800A06CB0F1804F03D1E86840F4803027
:101DB000E860206840030FD5D5F89C00E16C20F462
:101DC00040100843C5F89C00E06CB0F5001F03D13B
:101DD000E86840F48010E8603046BDE8F883000011
:101DE00000100240007000402DE9F0470E4605004B
:101DF0004FF0000725D0DFF8AC81D8F8000000F0E4
:101E00000F00B0420CD2D8F8001021F00F0131437E
:101E1000C8F80010D8F8000000F00F00B04210D150
:101E20002968614CC80741F2883A5AD06868DFF8DF
:101E30007C91032808D0022820682DD04005002876
:101E40002CDB0120BDE8F08720688001F9D5E0682F
:101E500000F00302E068C0F30310401C032A19D00D
:101E6000534A00BFB2FBF0F0E268C2F306225043CF
:101E7000E268C2F34162521C5200B0FBF2F04845E6
:101E800017D9A06810F0F00F0CD0880711D5A868FA
:101E900040B10EE0474AE5E78003D0E700F0BCF828
:101EA000484506D9A06820F0F00040F08000A0600E
:101EB0008027A068696820F003000843A060FFF74E
:101EC00015FD814606E000BFFFF710FDA0EB0901FC
:101ED00051453AD8A068696800F00C00B0EB810F5A
:101EE000F2D12868810714D5400703D5A06840F4D3
:101EF000E060A0602878000705D5A06820F4605055
:101F000040F4E060A060A068A96820F0F0000843F9
:101F100004E0802F03D1A06820F0F000A060D8F882
:101F20000010404601F00F01B14216D9016821F0BE
:101F30000F0131430160FFF7D9FC074607E000BFFE
:101F4000FFF7D4FCC11B514501D903207AE7D8F82B
:101F5000000000F00F00B042F2D12878400705D50C
:101F6000A068E96820F4E0600843A06028780007D2
:101F700006D5A068296920F4605040EAC100A0603D
:101F800000F04AF8A1680C4AC1F30311515C01F05A
:101F90001F01C8400949086009480068BDE8F047CA
:101FA000FFF7C2BC002002400010024000B4C4048D
:101FB0000024F40000366E01C63500080C00002035
:101FC0000000002001480068704700000C0000205D
:101FD0000548064900688968054AC1F30221515C39
:101FE00001F01F01C84070470C00002000100240A3
:101FF000D63500080548064900688968054AC1F3D6
:10200000C221515C01F01F01C84070470C00002044
:1020100000100240D6350008184910B58868C0F392
:1020200081021748012A0BD08A68164BC2F381023D
:10203000022A06D08A68C2F38102032A03D0002054
:1020400010BD184610BDCA6802F00304CA68C2F386
:102050000312521C032C02D0B0FBF2F001E0B3FBE0
:10206000F2F0CA68C968C2F306225043C1F3416165
:10207000491C4900B0FBF1F010BD00000010024007
:102080000024F40000366E012DE9F84304007AD0F4
:102090002078F84DC00747D0A868E96800F00C0028
:1020A00001F003010C2802D0082817D001E0032911
:1020B00014D06068B0F5803F17D0B0F5A02F286825
:1020C00017D020F480302860286820F48020286011
:1020D0006068E0B1FFF70AFC064614E02868800358
:1020E00022D560680028D2D01EE0286840F48030F5
:1020F000EDE740F480202860F7E700BFFFF7F6FB2C
:10210000801B642870D828688003F7D50CE0FFF79F
:10211000EDFB064605E000BFFFF7E8FB801B6428E7
:10212000F0D828688003F7D4207880074CD5A868B9
:10213000E96800F00C0001F003010C2802D004282B
:102140000DD001E002290AD0E068002828682BD0D1
:1021500040F480702860FFF7C9FB064619E0286844
:10216000400502D5E068002891D06868217C20F005
:10217000FE4040EA01606860BF480068FFF7D4FB9A
:10218000002800D120E072E1FFF7B0FB801B02289D
:10219000B8D828684005F7D56868217C20F0FE4053
:1021A00040EA016068600FE020F480702860FFF76B
:1021B0009DFB064605E000BFFFF798FB801B022849
:1021C000A0D828684005F7D42078000729D5606991
:1021D0000028D5F8940013D040F00100C5F8940011
:1021E000FFF784FB064606E090E000BFFFF77EFBAA
:1021F000801B022886D8D5F894008007F6D510E019
:1022000020F00100C5F89400FFF770FB064604E0DB
:10221000FFF76CFB801B022878D8D5F89400800764
:10222000F6D42078400761D5A86D0026C00008D4F8
:10223000A86D40F08050A865A86D012600F0805080
:1022400000908E480168C90511D40168804641F4A8
:1022500080710160FFF74AFB074604E0FFF746FB89
:10226000C01B022852D8D8F80000C005F6D5A068D7
:10227000012815D00528D5F8900016D020F00100CF
:10228000C5F89000D5F8900020F00400C5F8900043
:10229000A06841F28838B8B1FFF728FB07460EE086
:1022A000D5F8900040F00100F0E740F00400C5F8D8
:1022B0009000F5E7FFF71AFBC11B414526D8D5F87A
:1022C00090008007F6D50CE0FFF710FB074604E00E
:1022D000FFF70CFBC11B414518D8D5F890008007CB
:1022E000F6D41EB1A86D20F08050A8652078800635
:1022F00029D5A0690028D5F8980013D040F0010036
:10230000C5F89800FFF7F2FA064606E075E000BF50
:10231000FFF7ECFA801B02286FD8D5F898008007E9
:10232000F6D510E020F00100C5F89800FFF7DEFABE
:10233000064604E0FFF7DAFA801B02285DD8D5F8DC
:1023400098008007F6D4E069F0B3A968C1F3810171
:1023500003295DD00228286820F08070286003D00F
:10236000FFF7C4FA04464BE0FFF7C0FA064604E064
:10237000FFF7BCFA801B02283FD828688001F7D4F9
:10238000F4E908016FF00F0202EB01110843218A02
:102390005204490802EB4151A26841EA0221084374
:1023A000217D4FF07E42490802EB41610843217BC9
:1023B00040EAC160E968324A11400843E860286891
:1023C00040F08070286000E05EE0E86840F08070D7
:1023D000E860FFF78BFA044605E000BFFFF786FAD6
:1023E000001B022809D828688001F7D54CE000BFFF
:1023F000FFF77CFA001B022802D90320BDE8F8830E
:1024000028688001F4D4E8681E490840E8603BE091
:102410000128F3D0E868226A00F00301914226D136
:10242000616A00F0F0020901103991421FD1A26ADD
:1024300000F4FE41B1EB022F19D194F82C2000F0EA
:102440007841B1EBC26F12D1218E00F4C00249086D
:102450004905A1F50011914209D194F8341000F01A
:10246000C06049084906A1F1007181420CD00120E9
:10247000C4E700000010024000000020007000408F
:102480000C809F01FCFFEEFE0020B7E710B5401E58
:10249000B0F1807F01D3012010BD4FF0E0246061D6
:1024A0000F21601701F051F80020A0610720206182
:1024B000002010BD90F88410012918D0012180F867
:1024C00084102421C0F8881001680A680B6823F082
:1024D00001030B6022F0005100224266036819607C
:1024E0002021C0F8881080F8842010467047022010
:1024F00070477047704770B5044690F88400012813
:102500001DD0012084F884002420C4F888002068AD
:102510000568026822F0010202602068826822F0E9
:1025200060620A438260204600F064FD2068056016
:102530002020C4F88800002084F8840070BD0220A8
:1025400070BD70B5044690F8840001281DD00120AC
:1025500084F884002420C4F8880020680568026894
:1025600022F0010202602068826822F060420A4381
:102570008260204600F03EFD206805602020C4F8FF
:102580008800002084F8840070BD022070BD704770
:10259000704770472DE9F04103680446D86919680F
:1025A0009A6840F60F0528424FF000054FF00206EA
:1025B0000AD187067ED501F0200702F0805C57EA39
:1025C0000C0777D0616F42E1B64FDFF8DCC21740ED
:1025D00001EA0C0C57EA0C0C6CD05FEAC07C0CD002
:1025E0005FEAC15C09D54FF0010CC3F820C0D4F8F4
:1025F000903043F00103C4F89030830709D5D30726
:1026000007D023681E62D4F8903043F00403C4F866
:10261000903043070AD5D30708D0266804233362D5
:10262000D4F8903043F00203C4F8903003070CD57F
:1026300001F020033B4308D0266808233362D4F816
:10264000903043F00803C4F8903003050BD54B01DC
:1026500009D526684FF400633362D4F8903043F014
:102660002003C4F89030D4F89030002B3DD0800681
:1026700009D501F0200002F08051084303D0616FBA
:1026800009B120468847D4F8900021688968490636
:1026900002D410F0280F2AD0204600F08FFD2068C9
:1026A000806840061ED52068083050E8001F21F0E1
:1026B000400100E021E040E80012002AF3D1D4F804
:1026C000800078B179498163D4F88000FEF7EBFE91
:1026D00000280AD0D4F88000816B00E02046BDE8D5
:1026E000F04108472046FFF754FFBDE8F08120463F
:1026F000FFF74FFFC4F89050F7E7D4F86CC02027DD
:10270000BCF1010F7ED15FEAC06C7BD55FEAC16C82
:1027100078D51020186220688068400651D5D4F81A
:1027200080100A6850680004000C3ED0B4F85C3099
:1027300083423AD9A4F85E000868006880062CD469
:10274000216851E8000F20F4807041E80002002A5F
:10275000F6D12068083050E8001F21F0010140E860
:102760000012002AF5D12068083050E8001F21F03F
:10277000400140E80012002AF5D1C4F88C70E566EB
:10278000216851E8000F20F0100041E80002002A03
:10279000F6D1D4F88000FEF751FE2667B4F85C004D
:1027A000B4F85E10401A81B207E0B4F85C108142C0
:1027B0009BD11068800698D526672046FFF799FEC2
:1027C00093E7B4F85C00B4F85E10401A81B2B4F834
:1027D0005E00002889D0002987D0226852E8000FC7
:1027E00020F4907042E80003002BF6D12D4BDB4320
:1027F0002068083050E8002F1A4040E8002CBCF157
:10280000000F00E00EE0F3D1C4F88C70E566656758
:10281000206850E8002F22F0100240E80023002B2F
:10282000F6D1C9E7C60209D5560207D54FF4801084
:1028300018622046BDE8F041FFF7AABE03060AD59C
:1028400001F0800302F40002134304D0A16F0029B9
:102850007FF444AF49E7420611D54A060FD520461A
:10286000016851E8002F22F0400241E80023002BCC
:10287000F6D1C0F88870856700F028F935E70202C4
:1028800006D54A0004D52046BDE8F041FFF77FBEDB
:10289000C00195D5002993DA2046BDE8F041FFF745
:1028A00029BE00000100001020010004AD31000825
:1028B00010B5040003D0D4F8880010B107E001205F
:1028C00010BD002084F88400204600F027F8242062
:1028D000C4F888002068016821F001010160A06A45
:1028E00010B1204600F0A8FB204600F091FC012822
:1028F000E6D02068416821F49041416020688168F9
:1029000021F02A0181602068016841F00101016025
:102910002046BDE8104000F0F3BB00002DE9F04375
:102920009BB00446142115A8FDF73DFD54216846CF
:10293000FDF739FD5D4920685D4C0226DFF8749192
:1029400000254FF0050888422AD108200090049500
:102950006846FFF7C9F808B1FDF7D7FDA06D40F450
:102960000020A065A06D00F400201A90E06C40F0FB
:102970000400E064E06CCDE9166500F004001A90F4
:102980004FF44060CDE91858159015A94846FEF758
:1029900083FE002211463420FFF70EF834203FE07A
:1029A00045490427884240D110200595009068468B
:1029B000FFF79AF808B1FDF7A8FDA06D40F480106C
:1029C000A065A06D00F480101A90E06C40F0040047
:1029D000E064E06C00F004001A90E06C40F0080045
:1029E000E064E06CCDE9166500F008001A904FF441
:1029F0008050CDE918581590444615A94846FEF771
:102A00004BFECDE91665CDE91854159715A92B484D
:102A1000FEF742FE002211463520FEF7CDFF35209D
:102A2000FEF7BCFF1BB0BDE8F08325498842F9D111
:102A3000684600970395FFF757F808B1FDF765FD65
:102A4000A06D40F48020A065A06D00F480201A9055
:102A5000E06C40F01000E064E06C00F010001A90B0
:102A6000E06C40F00200E064E06C072400F002003B
:102A70001A904FF40040CDE91665CDE91854159031
:102A800015A91048FEF708FE4FF48060CDE91665E1
:102A9000CDE91854159015A90B48FEF7FDFD00224D
:102AA00011462720FEF788FF2720B9E7004C004099
:102AB000001002400008004800500040000C004890
:102AC0000048004000100048000400487047FEE73E
:102AD00000EB8100006E00F0F84070478068C0F3A2
:102AE000C00070478068C0F3800070478068C0F302
:102AF00080007047C06810F4406F01D0002070471C
:102B000001207047042303EAD15310B518444369E8
:102B1000C1F3045107248C40A3438A40134343610B
:102B200010BD00EB8100016E21F0004111430166F0
:102B30007047000030B589B020216846FDF733FCAE
:102B400019481849002401604FF44031C0E90114CC
:102B5000C46004250461C0E9054504774477012178
:102B6000016280F82440C462046380F83840C46382
:102B700080F84040FEF714F908B1FDF7C6FC0B4899
:102B800000900620CDE901047F200594CDE90305DE
:102B900069460548FDF770FD002801D0FDF7B5FC3A
:102BA00009B030BD00010050100000201000C0101E
:102BB00030B58BB0002408940994202168460A940B
:102BC000FDF7F1FB1D481C49042501604FF440311D
:102BD000C0E90114C4600461C0E905450477447785
:102BE0000121016280F82440C462046380F8384007
:102BF000C46380F84040FEF7D3F808B1FDF785FCC8
:102C000008A90E480894FDF787FC08B1FDF77DFC84
:102C10000B4800900620CDE901047F200594CDE902
:102C2000030569460548FDF727FD002801D0FDF79B
:102C30006CFC0BB030BD0000000400507C00002094
:102C40000400600800B58DB030216846FDF7ABFB8D
:102C50001549144808600846FEF7A5FB08B1FDF7C2
:102C600054FC0220009000208DF804008DF805002F
:102C70000290039001210490CDE9050102460790DE
:102C800069460948FEF774FA08B1FDF73EFC1022C8
:102C900069460548FEF76CFA002801D0FDF735FCBF
:102CA0000DB000BD00080050A8010020114808B573
:102CB000816C41F004018164816C01F00401009198
:102CC000816C41F001018164806C002200F0010000
:102CD000009011460C20FEF76FFE0C20FEF75EFE02
:102CE000002211460E20FEF767FEBDE808400E20C8
:102CF000FEF754BE001002402DE9F04387B01421C6
:102D00006846FDF750FB3F48C16C41F01001C164BB
:102D1000C16C01F010010591C16C41F02001C1644A
:102D2000C16C01F020010591C16C41F00401C16446
:102D3000C16C01F004010591C16C41F00101C16455
:102D4000C16C01F001010591C16C41F00201C16447
:102D5000C16C01F002010591C16C41F00801C16430
:102D6000C06C294F00F00800059000224021384631
:102D7000FEF7B6FDDFF8948000220E214046FEF7F4
:102D8000AFFDDFF88C904FF4E04600223146484614
:102D9000FEF7A6FD00242020CDE900046946384650
:102DA0000294FEF779FC402000900125CDE9015402
:102DB000694638460394FEF76FFC6802CDE90004CB
:102DC000694614480294FEF767FC0E200090CDE996
:102DD0000154694640460394FEF75EFCF010CDE9CD
:102DE0000004694648460294FEF756FC0096CDE979
:102DF0000154694648460394FEF74EFC07B0BDE80F
:102E0000F083000000100240001000480008004855
:102E1000000C004800140048184810B5164901601D
:102E20004FF4E1314160002181600C22C160C0E9B2
:102E300004128161C161016241628162FFF738FD64
:102E400008B1FDF762FB00210C48FFF77AFB08B1DF
:102E5000FDF75BFB00210948FFF74DFB08B1FDF7CB
:102E600054FB0648FFF726FB002803D0BDE81040BE
:102E7000FDF74BBB10BD0000004C0040BC01002022
:102E8000184810B5164901604FF4E1314160002146
:102E900081600C22C160C0E904128161C1610162DC
:102EA00041628162FFF704FD08B1FDF72EFB0021AE
:102EB0000C48FFF746FB08B1FDF727FB0021094846
:102EC000FFF719FB08B1FDF720FB0648FFF7F2FA00
:102ED000002803D0BDE81040FDF717BB10BD00006F
:102EE0000050004050020020184810B516490160FB
:102EF0004FF4E1314160002181600C22C160C0E9E2
:102F000004128161C161016241628162FFF7D0FCFC
:102F100008B1FDF7FAFA00210C48FFF712FB08B1DF
:102F2000FDF7F3FA00210948FFF7E5FA08B1FDF7CC
:102F3000ECFA0648FFF7BEFA002803D0BDE81040BF
:102F4000FDF7E3BA10BD000000480040E402002095
:102F5000FEE7FEE770477047FEF7CEBC10B594B0B1
:102F600038216846FDF71FFA14210EA8FDF71BFA59
:102F70000020FEF753FD0120009000040190022084
:102F80000324CDE907042821CDE90A100C900D9007
:102F900009946846FFF778F808B172B6FEE70F208B
:102FA000CDE90E04002010901190129004210EA87B
:102FB000FEF71AFF002801D072B6FEE714B010BD6C
:102FC0000248016841F470010160704788ED00E03B
:102FD0000148FEF7B4B90000A80100200148FFF73E
:102FE000D9BA0000BC0100200148FFF7D3BA0000A5
:102FF0005002002030B5416EB9B102689168926804
:10300000C1F342610B4B520F9C5CE50003F10804D5
:10301000A25CB5FBF2F2A0F86A205A5C615CD200B7
:10302000B2FBF1F1A0F8681030BD0121A0F86A10E0
:10303000F8E70000B635000890F82810090706D513
:1030400001684A68836B22F400421A434A6090F890
:103050002810C90706D001684A68C36A22F4003202
:103060001A434A6090F82810890706D501684A6813
:10307000036B22F480321A434A6090F82810490703
:1030800006D501684A68436B22F480221A434A60DD
:1030900090F82810C90606D501688A68C36B22F427
:1030A00080521A438A6090F82810890606D5016874
:1030B0008A68036C22F400521A438A6090F8281040
:1030C000490611D501684A68436C22F480121A43FC
:1030D0004A60416CB1F5801F06D101684A68836C73
:1030E00022F4C0021A434A6090F82810090606D557
:1030F00001684A68C06C22F4002202434A607047AB
:103100002DE9F84300260446C0F89060FEF7EEFB78
:103110008046206800684FF0200500076FF07E476A
:1031200013D54346002229042046009700F0BCF93D
:1031300058B1216851E8000F20F0800041E80002FA
:10314000002AF6D1C4F8885021E0206800684007C2
:1031500022D5434600224FF480012046009700F01C
:10316000A3F9C8B1216851E8000F20F4907041E83C
:103170000002002AF6D12068083050E8001F21F034
:10318000010140E80012002AF5D1C4F88C5084F8FF
:1031900084600320BDE8F883C4F88850C4F88C50DC
:1031A00044F86C6F666026760020F3E710B5806AFD
:1031B0000021A0F85E10FFF7ECF910BD10B5026811
:1031C00052E8001F21F4907142E80013002BF6D161
:1031D0000E4B0268083252E8001F194042E8001402
:1031E000002CF6D1C16E012908D1016851E8002FE9
:1031F00022F0100241E80023002BF6D12021C0F874
:103200008C100021C166416710BD0000FEFFFFEF7A
:103210002DE9F0410446016880682269E3691043A2
:10322000626900251A431043DFF84CC20A68934BC9
:103230001A4002430A6020684168E26821F4405164
:10324000114341602168A069614501D0226A1043A1
:103250008A688B4B1A4002438A602068C16A626A9E
:1032600021F00F011143C1628649236886488B42D1
:103270000DD1D0F8880010F0030006D0012867D0E7
:10328000022854D0032851D164E001204FE07F4947
:103290008B420BD1D0F8880010F00C0047D00428E6
:1032A00045D0082852D00C2840D153E078498B42B1
:1032B0000BD1D0F8880010F0300038D0102847D05B
:1032C000202843D0302831D144E072498B420BD1C1
:1032D000D0F8880010F0C00029D0402838D08028CD
:1032E00034D0C02822D135E06B498B420ED1D0F8C2
:1032F000880010F440701AD0B0F5807F28D0B0F567
:10330000007F23D0B0F5407F10D123E063450DD17D
:10331000D0F8880010F4406009D0B0F5806F17D065
:10332000B0F5006F12D0B0F5406F13D010205B4A9B
:103330005B4F00264FF40041634539D160B102284C
:103340000DD004280DD0082831D10EE00220EEE780
:103350000420ECE70820EAE7FEF73AFE03E0114616
:1033600003E0FEF759FE01007BD0606A37F81020B9
:103370006768B1FBF2F007EB4703834269D8B0EB13
:10338000073F66D8002308461946FCF795FF090257
:1033900041EA106102027808101871413A46002390
:1033A000FCF78AFF3F4AA0F54071914257D950E09F
:1033B000E3694FF6EF788B422BD1092849D2DFE839
:1033C00000F005080D48254848480E00FEF700FEAD
:1033D00001E0FEF70FFE010001D142E01146606AF4
:1033E00037F81000B1FBF0F04100606801EB5001CC
:1033F000B1FBF0F1A1F1100040452AD84FF6F07270
:1034000001EA0200C1F34201084328E0FEF704FE8E
:10341000E1E709281DD2DFE800F005080D1C1E1C9D
:103420001C1C0E00FEF7D4FD01E0FEF7E3FD0100D9
:1034300001D116E01146606A37F81000B1FBF0F1D7
:10344000606801EB5001B1FBF0F0A0F110014145C3
:1034500004D9012505E0FEF7DFFDE8E780B2216829
:10346000C8600120A4F86A0024F8680F2846E660C6
:103470002661BDE8F081000000800040F369FFCFC5
:10348000FFF4FF11003801400010024000440040EA
:1034900000480040004C0040005000400024F40070
:1034A0009E350008FFFC0F002DE9F04799461746AE
:1034B0000D4604464FF00008089E33E0701C31D0E2
:1034C000FEF714FAA0EB0900B04218D8BEB120688C
:1034D0000168490726D5802D24D0402D22D0C1690E
:1034E000C94309070DD4082505622046FFF766FE8B
:1034F000C4F8905084F884800120BDE8F087032050
:10350000FBE7C069C04300050CD421684FF400609C
:1035100008622046FFF752FE2020C4F8900084F88D
:103520008480ECE72068C06935EA000004D0002000
:10353000B842C3D00020E0E70120F9E70148FFF7D7
:1035400029B80000E4020020FEE70907090E002860
:1035500004DB00F1E02080F80014704700F00F0059
:1035600000F1E02080F8141D7047FEF7CDF9FFF759
:10357000F5FCFFF7C1FBFFF799FBFFF7DBFAFFF75D
:1035800017FBFFF75FFBFFF747FCFFF779FCFFF73F
:10359000ABFCFEE74FF04070E1EE100A704701000F
:1035A00002000400060008000A000C0010002000C1
:1035B0004000800000010101010307010000080430
:1035C00002040801010100000000000000000102E7
:1035D00003040607080900000000010203040000BC
:1035E000003600080000002010000000140200084F
:1035F0001036000810000020C80900003002000842
:103600001000000001000000000000000024F40091
:04000005080001D915
:00000001FF
