:020000040800F2
:10000000F8420020650300089B5B000821530008AC
:10001000995B000885210008857100080000000038
:10002000000000000000000000000000415F000828
:1000300005220008000000009D5B000833610008F5
:100040007F0300087F0300087F0300087F03000888
:100050007F0300087F0300087F0300087F03000878
:100060007F0300087F0300087F0300087F03000868
:10007000892100087F030008952100087F030008FC
:100080007F0300087F030008112100087F03000898
:100090007F0300087F0300087F0300087F03000838
:1000A0007F0300087F0300087F0300087F03000828
:1000B0007F0300087F0300087F0300087F03000818
:1000C0007F0300087F0300087F030008DD5B000852
:1000D0007F0300087F0300087F0300087971000890
:1000E0007F0300087F0300087F0300087F030008E8
:1000F0007F0300087F0300087F0300081D2100081C
:100100007F0300087F0300087F0300087F030008C7
:10011000416600084D660008B5610008D16100081D
:100120007F0300087F0300087F0300087F030008A7
:100130007F0300087F0300087F0300087F03000897
:100140007F0300087F0300087F0300087F03000887
:100150007F0300087F0300087F0300087F03000877
:100160007F0300087F0300087F0300087F03000867
:100170007F0300087F0300087F0300087F03000857
:100180007F0300087F0300087F0300087F03000847
:100190007F030008000000007F0300087F030008C1
:1001A0007F0300087F0300087F0300087F03000827
:1001B0007F0300087F0300087F0300087F03000817
:1001C0007F0300087F0300087F0300087F03000807
:1001D0007F0300087F03000800F002F800F0B2F887
:1001E0000AA090E8000C82448344AAF10107DA4592
:1001F00001D100F0A7F8AFF2090EBAE80F0013F032
:10020000010F18BFFB1A43F001031847B88900001B
:10021000D88900000A444FF0000C10F8013B13F09D
:10022000070408BF10F8014B1D1108BF10F8015B4F
:10023000641E05D010F8016B641E01F8016BF9D142
:1002400013F0080F1EBF10F8014BAD1C0C1B09D199
:100250006D1E58BF01F801CBFAD505E014F8016B0B
:1002600001F8016B6D1EF9D59142D6D3704700009D
:100270000023002400250026103A28BF78C1FBD8AF
:10028000520728BF30C148BF0B6070476E2900F08D
:10029000D582702900F01F84662908F07F836529C4
:1002A00008F07C83672908F07983612908F0788356
:1002B00003681B0A28BF41F08001692900F082828F
:1002C000642900F07F82752900F07C826F2900F09C
:1002D000AC83782900F0EB83E92900F04783E42917
:1002E00000F04483F52900F04183EF2900F0A98351
:1002F000F82900F0EA830368DB0928BF41F0800198
:10030000632901F05381732901F05881E32901F039
:100310006381F32901F06881002070471FB508F060
:1003200038FB01F017FA04000020002108F08EFAD3
:10033000401C60600020002108F09EFAE0601FBDB4
:1003400010B510BD01F0E1F91146FFF7E7FF07F026
:1003500037FD01F0C3FA03B4FFF7F2FF03BC01F06D
:1003600007FB00000948804709480047FEE7FEE711
:10037000FEE7FEE7FEE7FEE7FEE7FEE7FEE7FEE755
:1003800004480549054A064B70470000A56100086E
:10039000D9010008F83C0020F8420020F83E002077
:1003A000F83E002053EA020C00F069802DE9F04B82
:1003B0004FF00006002B1FBFB3FA83F503FA05F4D4
:1003C00024FA05F65E4012BF1643B2FA82F502FA2D
:1003D00005F4C5F120051EBF22FA05FC44EA0C0411
:1003E000203556EA044C4FEA144418BF641C4FF001
:1003F00000084FF00009904271EB030C39D300293B
:1004000019BFB1FA81F701FA07F6B0FA80F700FADE
:1004100007F6C7F120071EBF20FA07FC46EA0C06C4
:100420002037B6FBF4FCA7EB0507103F07F01F0BC6
:10043000CBF120060CFA0BFB2CFA06F644BFB346B0
:100440000026202FA4BF5E464FF0000B5BEA060C8F
:1004500008BF4FF0010B19EB0B09ABFB027C48EB1B
:100460000608C01B06FB02CC0BFB03CC71EB0C0196
:10047000C1E70B46024641464846BDE8F08B13B53E
:100480004FF000004FF00001AFF30080BDE81C40CA
:10049000704700007CB51D4616460C00009001D048
:1004A0002044401E074B7B442A4669460190304653
:1004B00000F0DDF905461CB10020694600F0EAF9BC
:1004C00028467CBDF503000070B5064600F014F91F
:1004D0000468054630460A22002100F0CBFB2C6060
:1004E00070BD0000014A00F0FDBB0000BC0200200E
:1004F00030B505460B462A4613F8014B12F8010B9E
:1005000008B1A042F8D01CB1002802D06D1CF1E760
:10051000284630BD40EA010310B59B070FD1042ADD
:100520000DD310C808C9121F9C42F8D020BA19BABE
:10053000884201D9012010BD4FF0FF3010BD1AB123
:10054000D30703D0521C07E0002010BD10F8013B78
:1005500011F8014B1B1B07D110F8013B11F8014B9F
:100560001B1B01D1921EF1D1184610BD40EA0103B8
:10057000024630B59B0710D14FF0013400E008C2AD
:1005800008C91D1B9D4315EAC41FF8D013F0FF01D5
:1005900002F8011B0DD01B0AF8E711F8013B002BF4
:1005A00002F8013B05D011F8013B002B02F8013B9A
:1005B000F3D130BD032A40F2308010F0030C00F07C
:1005C000158011F8013BBCF1020F624498BF11F88D
:1005D00001CB00F8013B38BF11F8013BA2F1040246
:1005E00098BF00F801CB38BF00F8013B11F00303BE
:1005F00000F02580083AC0F0088051F8043B083A22
:1006000051F804CBA0E80810F5E7121D5CBF51F8C3
:10061000043B40F8043BAFF30080D20724BF11F83D
:10062000013B11F801CB48BF11F8012B24BF00F8A2
:10063000013B00F801CB48BF00F8012B704710B513
:10064000203AC0F00B80B1E81850203AA0E81850CA
:10065000B1E81850A0E81850BFF4F5AF5FEA027C8B
:1006600024BFB1E81850A0E8185044BF18C918C0FA
:10067000BDE810405FEA827C24BF51F8043B40F89B
:10068000043B08BF7047D20728BF31F8023B48BF80
:1006900011F8012B28BF20F8023B48BF00F8012BBE
:1006A00070474FF0000200B5134694469646203935
:1006B00022BFA0E80C50A0E80C50B1F12001BFF41B
:1006C000F7AF090728BFA0E80C5048BF0CC05DF881
:1006D00004EB890028BF40F8042B08BF704748BFCF
:1006E00020F8022B11F0804F18BF00F8012B704743
:1006F000704770477047000000487047943C0020E6
:1007000070B5044685690068C10601D5302600E051
:100710002026C00707D070BDD4E90121304690479C
:10072000206A401C20626D1EF6D570BD70B504466F
:1007300085690078C00707D170BDD4E90121202068
:100740009047206A401C20626D1EF6D570BD096876
:100750004A0501D540B27047C905FCD500B27047C3
:1007600009684A0501D5C0B27047C905FCD580B2F9
:10077000704770B50C460546012A05D028788006DA
:1007800000D5EA69002302E0012305E05B1C9342E7
:1007900002D2E05C0028F9D1A869E618C01AA86165
:1007A000286A184428622846FFF7AAFF04E0D5E922
:1007B000012114F8010B9047B442F8D32846FFF703
:1007C000B5FF70BD2DE9F04106460024106875297B
:1007D000314616A510D0FFF7BAFF002802DA4042D2
:1007E00013A507E031688A0701D512A502E0490781
:1007F00004D511A5012401E0FFF7B2FF00210A2270
:1008000006F1240709E0B0FBF2FCB0FBF2F302FBB7
:100810001C00303078541846491C0028F3D1234678
:100820002A463046BDE8F04100F0CFBA0000000093
:100830002D0000002B00000020000000116802685D
:10084000006A530501D508700AE0D30501D5088078
:1008500006E0130603D5C217C1E9000200E00860F4
:100860000120704701694A1C02610878704700B591
:100870008FB0CDE901310021059105497944CDE9D9
:1008800003101146684600F031F90FB000BD0000BA
:10089000E5FFFFFF0A6802F8010B0A607047D1E923
:1008A00000239A4202D2531C0B6010707047000064
:1008B0002DE9FF5F15468A460446DFF8AC80F84410
:1008C0000027D8E900103E46CDE9001010E03AF8C4
:1008D00016106A4602A800F0DAFE411C07D0217803
:1008E000890603D5E269391891420DD80744761C70
:1008F0002078800602D5E069B84205DDAE42E6DB2D
:100900003AF816000028E2D1A069C01BA061204679
:10091000FFF7F6FED8E90010CDE90010002017E03F
:100920003AF818106A4602A800F0B1FEB0F1FF3F95
:1009300081460BD000250DF1080B05E0D4E901211B
:100940001BF8050090476D1C4D45F7D308F10100D9
:10095000B0428046E4DB206A384420622046FFF73C
:10096000E5FEBDE8FF9F0000068200002DE9F04192
:100970008046D21D22F007020025D2E90002F529A7
:1009800015A614D0011E72F1000106DA0023D0EB87
:10099000030063EB020211A608E0D8F800108B07F1
:1009A00001D50FA602E0490701D50EA60125114683
:1009B000002408F1240704E000F0C2F930323A556F
:1009C000641C50EA0102F7D12B46324621464046CC
:1009D000BDE8F04100F0F9B9000000002D00000072
:1009E0002B0000002000000030B4002100F124049E
:1009F00008E002F00705D208303542EA4372DB080E
:100A00006554491C52EA0305F3D10468002310A27F
:100A1000250707D5A40600D421B1C46901230DA27E
:100A2000641EC46130BC00F0D0B910B50446214644
:100A30001068FFF795FE02462046BDE810400023EF
:100A4000D2E7D21D22F00701D1E90023CCE7000054
:100A50000000000030000000F0B40D4601880905D8
:100A600002D5214C7C4402E01F4C7C440E34002112
:100A700000F1240608E002F00F071209E75D42EAE0
:100A800003721B097754491C52EA0307F3D1027819
:100A90000023120704D5702D06D009B102231134AA
:100AA0002246F0BC00F091B901231034F8E770B58C
:100AB00004460D4621461068FFF752FE02462946BD
:100AC0002046BDE870400023C6E7D21D22F0070390
:100AD000D3E90023C0E70368126843F020030360F2
:100AE0000823C3610023B7E7688000002DE9F05FA9
:100AF000894604464FF0000ADFF874B1FB44C0F8A1
:100B000020A02046E1688847002874D0252806D018
:100B1000D4E901219047206A401C2062F1E70026B9
:100B20005F462046E16888472028054607DB312DCF
:100B300005D2781910F8200C08B10643F1E7B00788
:100B400001D526F00406C4F81CA00027C4F818A09C
:100B50002A2D09D0284606F03EFB38B304EB87085F
:100B6000303DC8F8185019E059F8041B204604EB32
:100B700087029161E1688847012F054618D1E06935
:100B8000002820DA26F020061DE0D8F8180000EB37
:100B9000800005EB40003038C8F818002046E168B6
:100BA0008847054606F017FB0028EED1012F0AD032
:100BB0002E2D08D12046E16888477F1C0546022F6C
:100BC00046F02006C4DBA069002803DA404246F064
:100BD0000106A061F00701D026F010066C2D0BD0A5
:100BE000682D09D04C2D39D06A2D35D0742D35D0D3
:100BF0007A2D33D016E038E0E1682F46204688474A
:100C0000B842054609D16C2F26D04FF48060E168C8
:100C1000064320468847054604E06C2F1AD04FF45F
:100C2000807006430DB3A5F14100192802D8203584
:100C300046F400664A462946204626604E46FFF79F
:100C400025FB80B101280BD0F61D26F0070000F12E
:100C5000080956E74020E4E78020D8E70020D6E7DF
:100C600006F104094DE7284652E7206ABDE8F09FE7
:100C7000F87F00002DE9F04791460F468046044674
:100C8000002614F8015B2DB100F052F80068405DB9
:100C9000C007F6D12B2D02D02D2D18D0641E4A4648
:100CA0003946204600F0A4FC27B13968A14201D1A1
:100CB000C7F800804FF0020471050BD540420028B0
:100CC00003DDFFF719FD0460A007BDE8F08746F4D7
:100CD0008066E4E70028F8DAFFF70EFD04606FF0A5
:100CE0000040F2E72DE9F04115460E46040002D11E
:100CF0002C6804B90BA4204600F0F9FC04442078C9
:100D000070B127463146384600F0E1FC04442078B3
:100D100010B1002004F8010B38462C60BDE8F081CA
:100D20000027F9E70000000000487047943C0020CD
:100D300010B500F00FFD001D10BD00BF117B0000BD
:100D400030B5B0F10A024FEA900E71F100034EEA9D
:100D5000817EB0EB0E0061EB91014FEA101E4EEA6E
:100D6000017E10EB0E0041EB11114FEA102E4EEAFE
:100D7000016E10EB0E0041EB11214FEA104E4EEACE
:100D8000014E10EB0E0041EB1141401841F1000102
:100D90004FEAD00040EA41704FEAD10110EB8005E4
:100DA0004FEA810444EA907444EB01046D1944EB6A
:100DB0000404521BA3414FF0000348BF0A3200D580
:100DC00030BD401C41F1000130BD2DE9F0470D461A
:100DD00099469246044600F124080168880604D525
:100DE000E06921F01001216000E00120A84201DD4E
:100DF000471B00E00027A1697A1902EB0900081AD5
:100E0000A0612078C00602D42046FFF779FC0026B6
:100E100008E0D4E901211AF806009047206A401C36
:100E2000761C20624E45F4DB2078C0060AD52046A9
:100E3000FFF766FC06E0D4E9012130209047206AE4
:100E4000401C2062381EA7F10107F4DC07E0D4E95A
:100E5000012118F805009047206A401C2062281ED6
:100E6000A5F10105F3DC2046FFF760FC20780006C1
:100E700002D50220BDE8F0870120FBE770472DE98D
:100E8000FF4F0C461E464FF0FF378BB0D2E90001F2
:100E9000DDF860800A908A46C1F30A5505B93D46DF
:100EA000002108464FF00000BAF1000F00F44000A6
:100EB00005DA00EB80004FF4400101EA50004FEAF0
:100EC0009059B9F1010F00DDB9460A9850EA4A007D
:100ED0000ED044F61050A5F2FF3545432F14B8F15B
:100EE000000F1ED07542291E1EDDC9F100021CE054
:100EF000B8F1010F4FF0000001D0302103E0F243C0
:100F000005E02154401CB042FBDB304600220021AA
:100F100021540B99C1F80880C1E900200FB0BDE849
:100F2000F08FBD1B6D1CDEE74A4600DA694206A859
:100F300000F062FC06AB93E8070003AB83E8070010
:100F400050460A9900F01BFD8DE80700A0F50050FF
:100F50001F3800900398002D0ADD42F21F014A4617
:100F60000844002303A90390684600F084FF09E0C9
:100F7000A0F500504A461F38002303A90390684695
:100F800000F08EFF8DE807000004000C03D04FF046
:100F9000FF30410800E01046B8F1000F03D00022F6
:100FA000009215461EE0751E05D4FFF7C9FE3032CB
:100FB00062556D1EF9D5B3460122084302D00022C6
:100FC0007F1C04E02078302801D100227F1E002AF7
:100FD000099784D01DE0112D07DAFFF7B1FE3032FA
:100FE00062556D1C50EA0102F5D1084302D0009809
:100FF000C8B10EE00021681E05E0235C625C63540A
:101000002254401E491C8142F7DBAB46A81B401E00
:101010000990002004F80B000B98099AC0F808808A
:10102000C0E9002B7AE711264FF0000857E72DE9B9
:10103000F04F88460446D21D22F0070191B0D1E955
:101040000001CDE90A0106F09EF802460B98C00F98
:1010500001D02D2007E02068810701D52B2002E078
:10106000202101EAC000032A099001D0072A05DBEC
:1010700003464146204600F071FB0BE120788006D4
:1010800001D5E06900E00620B8F1650F814606D081
:10109000B8F1660F18D0B8F1670F70D131E00020B9
:1010A000B9F1110F009001DB112301E009F10103F7
:1010B0000AAA01A90CA8FFF7E2FEDDE90C700026E0
:1010C00009F10105834647E001204B4600904FF0AF
:1010D00000470AAA01A90CA8FFF7D1FEDDE90DB06F
:1010E0000C995D46002610B909F101000D18B9EB05
:1010F000050003D4C0F1FF3609F10105A5EB090095
:101100002BE0B9F1010F01DA4FF001090020B9F12C
:10111000110F0090484601DD112300E003460AAAA2
:1011200001A90CA8FFF7ABFEDDE90C704D460026C7
:101130008346207800070AD4AB4500DA5D4601A853
:10114000012D04DD411911F8011C302907D04F454C
:1011500002DA17F1040F04DA012082460FE06D1E57
:10116000EEE7002F02DCED1B3E4403E0781CA842B2
:1011700000DD7D1CB81B00F1010A4FF0004720780C
:10118000000703D4AA4501DB4FF0FF3A0021B7F175
:10119000004F0DF143088DF8431024D002202B237B
:1011A000002F01DA7F422D230A21021EA0F1010047
:1011B00000DC5FB197FBF1FC97FBF1F201FB1C7CBB
:1011C00017460CF1300C08F801CDEEE7A8F101004C
:1011D00003702188090501D5452100E06521A0F1B2
:1011E000010800F8011C09980FA9A1EB0807FF1DD1
:1011F00000B10120411901EBEA70A1693844081AD5
:10120000401EA0612078C00602D42046FFF778FA7D
:10121000099828B1D4E901219047206A401C206236
:101220002078C00622D52046FFF76AFA1EE0002E7D
:1012300004DBB34502DD01A8805D00E03020D4E985
:1012400001219047206A401C2062761CAAF101000F
:101250005FEA000A0AD100F07DFAC0680168405CCC
:10126000D4E901219047206A401C2062281EA5F184
:101270000105DCDC07E0D4E9012118F8010B9047F7
:10128000206A401C2062381EA7F10107F3DC2046CB
:10129000FFF74CFA032011B041E600002DE9F04FB2
:1012A00004460D46D21D22F0070089B0D0E9009710
:1012B0004846394605F067FF0246F80F01D02D2356
:1012C00007E02068810701D52B2302E0202101EAF5
:1012D000C0038DF820300BB1012000E00020032A6C
:1012E000824601D0072A04DB2946204600F036FA60
:1012F0003FE12078800601D40D2500E0E569C7F3C1
:101300000A560D2D49DA00214FEA175B08464FF0C7
:101310000000002F00F4400007DA00EB80004FF4DB
:10132000400100EBD07001EA60008115012901DD68
:101330004FF0FF3100224FEA850CBCF1180F06D3A5
:101340001346ACF118004FF08052C24003E04FF456
:10135000801323FA0CF30CF10C0CBCF1200F04D316
:10136000ACF1200C09FA0CF001E007FA0CF00029AE
:101370004FF0004801DD18B90FE00ED140450CD305
:1013800019EB02095F4121B9404502D19F4329EA87
:101390000209BBEB175F00D0761C2088000502D540
:1013A0007B48784402E07A487844193808AA302308
:1013B00002F80A30037C0AF10101002E0AF1020A48
:1013C00053546A4602DC4FF0300101E04FF0310126
:1013D0004FF001088DF8001002D0A6F2FF3603E0AE
:1013E00059EA470100D06B4E002D02DC2178090735
:1013F00004D54FF002082E218DF80110C4460021BB
:101400000BE0C7F303433F01C35C491C6D1E02F8A8
:101410000830052908F1010801DA002DF1DC00216E
:101420000CE000EB1973491C1B786D1E082902F8AB
:1014300008304FEA091908F1010801DA002DF0DC43
:1014400021688B0602D516E0A8F10108E04505DD0C
:1014500002EB080313F8013C302BF5D0B8F1000F74
:1014600009DD02EB080313F8013C2E2B03D1090719
:1014700001D4A8F10108002D05DD3E2102F8081075
:101480006D1E08F10108407C002E02F8080008F1EA
:10149000010804DA2D20764202F8080002E02B2031
:1014A00002F808000A214FF47A70864208F1010818
:1014B0000BDB96FBF0F3303302F8083096FBF0F3C9
:1014C00008F1010800FB136601E0642E0CDB6420C8
:1014D00096FBF0F3303302F8083096FBF0F308F196
:1014E000010800FB136601E00A2E06DB96FBF1F013
:1014F000303002F8080008F1010896FBF1F001FB1A
:101500001060303002F80800A16908F1010808EB0A
:10151000050202EB0A00081AA0612078C00602D476
:101520002046FFF7EDF8216A08AE01EB0A002062C1
:1015300004E0D4E9012116F8010B9047BAF1010A41
:10154000F7D22078C00602D52046FFF7D9F86E46BC
:1015500009E016F8010B3E280FD0D4E9012190478D
:10156000206A401C2062B8F10108F2D22046FFF741
:10157000DDF809B00320BDE8F08F206A284420621E
:1015800003E0D4E90121302090476D1EEBD3F8E74A
:101590007677000002FCFFFF10B5436913B1AFF38B
:1015A000008001E0FFF7E5F8012010BD127800F19E
:1015B00024010A7000224A700122EDE711684FF001
:1015C000FF32E9E710B5436913B1AFF3008001E0E2
:1015D000FFF76EF9012010BD128800F1240182840A
:1015E0000022C2840122EDE711684FF0FF32E9E7E3
:1015F0002DE9F05F824615468B4600270AF101046B
:10160000B9460078302801D09DB113E014F8010BE1
:101610000127782803D0582801D045B10AE00DB140
:10162000102D07D1002714F8010B102502E0082522
:1016300000E00A250026B0460EE005FB080005FB89
:1016400006F101271FFA80F801EB1046B6F5803F3E
:1016500000D3B94614F8010B294600F0BFF8002862
:10166000EBDABBF1000F05D00FB1641E00E0544669
:10167000CBF80040B9F1000F06D0FFF73DF802218A
:101680000160C81EBDE8F09F48EA0640FAE770B561
:1016900016460C460546FFF74BFB036893F801011D
:1016A000012806D0FF2C0FD8185D68B101202C70DE
:1016B00070BDD3F807013246214603F207130344F5
:1016C0002846BDE8704018474FF0FF3070BD30B578
:1016D00003461D781DB10A4603E0AC4201D1181A39
:1016E00030BD12F8014B002CF7D15B1CF1E730B58F
:1016F00003461D783DB10A4612F8014B1CB1AC42BD
:10170000FAD15B1CF5E7181A30BD7546FFF70CFBE4
:10171000AE4605006946534620F00700854618B0DE
:1017200020B5FEF72DFEBDE820404FF000064FF03B
:1017300000074FF000084FF0000B21F00701AC4606
:10174000ACE8C009ACE8C009ACE8C009ACE8C00925
:101750008D46704700487047B43C00202DE9F041A9
:101760001F46044603260168072A01F4006004DBD3
:1017700008B116A505E016A503E008B115A500E01F
:1017800015A521F010002060A069C01EA0610FB156
:10179000401EA0612046FEF7B3FF4FB1D4E90121FE
:1017A00038469047206A401C2062C01C206206E038
:1017B000206AFAE7D4E9012115F8010B9047761E5B
:1017C000F8D22046FEF7B2FFBDE8F0814E414E0050
:1017D0006E616E00494E4600696E66003A2800D27E
:1017E000303820F02002412A01D3A2F1370088428C
:1017F00001D34FF0FF3070472DE9F0478146164680
:101800008AB0354878440DC88DE80D0032487844D8
:10181000801C03AC0DC884E80D0041F69B300844E1
:10182000372190FBF1F290FBF1F5A5F1800501FB6A
:1018300012041B3C02D56442012000E00020DFF8C6
:1018400098A080460027FA44AAF1BE0A0EE0E007FD
:101850000AD03246684607EB470101230AEB8101B3
:1018600000F01EFB8DE8070064107F1C002CEED1F9
:10187000194F7F44AE3F19E0E80715D007EB04107D
:101880000DF1180A90E80E008AE80E00C068F042D8
:1018900001D1981908903246012306A903A800F047
:1018A000FFFA03AB83E807006D10641C002DE3D141
:1018B0004FF0010332466946B8F1000F03A802D089
:1018C00000F0D9FA01E000F0EBFAC9E90001C9F82B
:1018D00008200AB0BDE8F087A473000010B50446E4
:1018E000AFF300802046BDE81040FEF734BD000095
:1018F0004FF0013C50F8042B51F8043B9A4221D19F
:10190000A2EB0C03934313EACC1317D150F8042B2A
:1019100051F8043B9A4215D1A2EB0C03934313EA0E
:10192000CC130BD150F8042B51F8043B9A4209D147
:10193000A2EB0C03934313EACC13DBD04FF000006F
:10194000704700BFD01A01BAB1FA81F101F0180155
:1019500022FA01F0CB40C1F12001DBB2C0B2C01AC3
:101960002CFA01F3D11A914311EAC311E6D1704761
:1019700001491820ABBEFEE72600020070475FEA6F
:10198000400C08BF91F0000F4FEA8C234FEAC122B0
:1019900043EA51514FEA1C5018BF00F5F0404FEA9E
:1019A000300018BF41F000415FEA6C5C00F0298014
:1019B000BCF1FF3F08BF40F080407047130C06BFEA
:1019C00012044FF0100C4FF0000C130E04BF120263
:1019D0000CF1080C130F04BF12010CF1040C930F4F
:1019E00004BF92000CF1020CD30F04BF52000CF1A3
:1019F000010C11464FF00002A0F11F00A0EB0C00FB
:101A0000704711F0004F08BF704731F000413FF4BC
:101A1000D5AF0B0C06BF09044FF0100C4FF0000CB3
:101A20000B0E04BF09020CF1080C0B0F04BF0901D7
:101A30000CF1040C8B0F04BF89000CF1020CCB0FCE
:101A400004BF49000CF1010CCCF12003A0EB0C0009
:101A500022FA03F302FA0CF241EA030100F1010059
:101A6000704720F07F4C80EA030023F07F47ACEB07
:101A7000070303F57C5300F0004003F1FF032DE959
:101A800080494FEA154B09B44FEA144325EA0B4E3F
:101A900024EA03480FF2042606EB132749083E7890
:101AA0005FEA320203FB0667C7F5000707FB06F68D
:101AB0004FEA54374FEAD64606F1020607FB066C9A
:101AC000CCF1005C4FEA1C472CEA074C07FB06F4FC
:101AD0000CFB06F504EB15464FEA961634BF0020C2
:101AE0004FF000404FEAD13706FB07FC4FEA1C4C91
:101AF0000CFB0BF7D21B03FB0CF761EB07010CFB94
:101B00000EF7B0EB074072EB17420CFB08F734BF3F
:101B1000A2EB0742B2EB074261EB17414FEA0C44DC
:101B20004FEA910706FB07FC4FEA1C4C0CFB0BF736
:101B3000B0EBC74072EB573203FB0CF734BFA2EB9C
:101B4000C742B2EBC74261EB57310CFB0EF7B0EB6B
:101B5000C70072EB57720CFB08F734BFA2EBC70249
:101B6000B2EBC70261EB5771039F4FEA816141EA13
:101B7000921104EBCC044FEAD1374FEA826206FBA4
:101B800007FC42EA90124FEA80604FEA1C4C0CFBC3
:101B90000BF7D21B03FB0CF761EB07010CFB0EF7F5
:101BA000B0EB074072EB17420CFB08F734BFA2EB17
:101BB0000742B2EB074261EB17414FEA8C554FEAFF
:101BC000910704EB9C2406FB07FC4FEA1C4C0CFB22
:101BD0000BF7B0EBC74072EB573203FB0CF734BF87
:101BE000A2EBC742B2EBC74261EB57310CFB0EF7D9
:101BF000B0EBC70072EB57720CFB08F734BFA2EBD7
:101C0000C702B2EBC70261EB577115EB4C254FEAE7
:101C1000816141EA92114FEA82624FEAD13742EA8A
:101C2000901206FB07FC44F100044FEA80604FEA83
:101C30001C4C0CFB0BF7D21B03FB0CF761EB0701F1
:101C40000CFB0EF7B0EB074072EB17420CFB08F7EA
:101C500034BFA2EB0742B2EB074261EB174115EB31
:101C60001C154FEA813141EA92414FEA823242EA41
:101C700090424FEA80304FEA0C7644F1000448EA83
:101C800003434EEA0B484FF0000EB2EB080C71EB29
:101C9000030724BF624639464EEB0E0E4FF0000B91
:101CA0000018524149414BEB0B0BB2EB080C71EBA6
:101CB00003077BF1000B24BF624639464EEB0E0E44
:101CC0004FF0000B0018524149414BEB0B0BB2EBAC
:101CD000080C71EB03077BF1000B24BF6246394609
:101CE0004EEB0E0E51EA020718BF46F0010616EB46
:101CF0000E7655F1000254F1000103D5BDE88901CB
:101D0000BDE80088BDE88901BDE80048B619524128
:101D100041EB0101A3F10103704780807F7E7D7C50
:101D20007B7A7978777676757473727171706F6E6D
:101D30006E6D6C6C6B6A6A69686867666665646418
:101D4000636362616160605F5F5E5E5D5D5C5C5BA2
:101D50005B5A5A5959585857575656555555545411
:101D6000535352525251515050504F4F4F4E4E4D6F
:101D70004D4D4C4C4C4B4B4B4A4A4A4949494848BB
:101D800048474747474646464545454444444443FB
:101D900043434342424242414141002B9C4630D49E
:101DA00077002BD01CB54FEA370703B44FF0100073
:101DB0004FF01001BAF1000F06D0BCF1000FDCBFEC
:101DC00040F0080040F008014FF000000FBCBDE8F3
:101DD00010400BF1010BBBF1010F08BF5FEA1707C1
:101DE00022BF12F1010211F101014FF0004143F154
:101DF000000300F0004043EA00007047F9D35708A1
:101E0000D0E746EA064613F1400F4FEA16461FDDBB
:101E100013F1200FDFBF16430A46002120335B4237
:101E2000BED0C3F1200746EA064602FA07F74FEA9A
:101E3000164646EA0706C3F1200722FA03F201FA22
:101E400007F721FA03F14FF0000342EA0702A7E780
:101E500046EA020646EA06464FEA164646EA010602
:101E6000BCBF46EA0646360C4FF000034FF00002B6
:101E70004FF0000194E72DE9804C9A46934670B4E8
:101E800091E8380007C831EA400C48BF34EA430CF7
:101E900003D5FFF7E6FDFFF780FFF0BCBDE8008C3F
:101EA0002DE9804C9A46934670B491E8380007C8F3
:101EB00010F0804F08BF13F0804F03D100F005F8F9
:101EC000FFF76BFFF0BCBDE8008C20F07F4780EA95
:101ED000030023F07F4C07EB0C03A3F57C5300F0C9
:101EE0000040A3F1FE0392F0000F00F0B38095F0E4
:101EF000000F00F077802DE901494FEA11404FEAC9
:101F0000144621EA004800FB06FC24EA064708FBC9
:101F100006F607FB08F800FB07F718EB06484CEB42
:101F2000164C4FEA124B18EB07484FEA15464CEB9C
:101F3000174022EA0B4E0BFB06FC25EA06470EFB78
:101F400006F607FB0EFE0BFB07F71EEB064E4CEBEF
:101F5000164C4FF000061EEB074E4CEB174B18EBE0
:101F60000B0840F1000018EB0E0B58EB000840F195
:101F700000008F1A4FF000013CBFC943661B14BF1D
:101F8000B5EB040C00213CBFC943F61B4FEA1744D4
:101F90004EEA8E0E27EA04454FEA1C4704FB07620F
:101FA0002CEA074C05FB07F70CFB05F604FB0CFCC1
:101FB00016EB074642EB174216EB0C4642EB1C426F
:101FC0001BEB060658EB0202414146EA9E0601D58C
:101FD000BDE80189B619524141EB0101A3F10103AA
:101FE000BDE801894FEA14454FEA114724EA054646
:101FF00021EA074C05FB07F406FB07F70CFB06F18B
:1020000005FB0CFC11EB074144EB17444FEA124768
:1020100011EB0C4144EB1C4422EA074C05FB07F290
:1020200006FB07F70CFB06F605FB0CFC16EB074658
:1020300042EB174216EB0C4642EB1C456A1854F172
:10204000000148BF7047B619524141EB0101A3F1AD
:102050000103704795F0000F37D04FEA11424FEA65
:10206000144721EA024624EA074C02FB07F106FB6B
:1020700007F70CFB06F402FB0CFC14EB074441EBE6
:1020800017414FEA154714EB0C4441EB1C4125EA7C
:10209000074C02FB07F506FB07F70CFB06F602FBF5
:1020A0000CFC16EB074645EB174516EB0C4645EBCB
:1020B0001C42121951F1000148BF7047B619524134
:1020C00041EB0101A3F1010370474FEA14454FEAC8
:1020D000114724EA054621EA074C05FB07F106FBF8
:1020E00007F70CFB06F24FF0000605FB0CFC12EBA9
:1020F000074241EB174112EB0C4251EB1C4148BF28
:102100007047921841EB0101A3F1010370470000F1
:10211000014800F089BB0000C0020020014800F027
:1021200083BB00002C03002010B5044605F0FAFD27
:10213000227952EA0001114802D0012A0AD016E0A1
:102140000121017005F052FB102006F0A5F9A078DE
:1021500000220AE00A490B78102B08D309781429C9
:1021600005D800210170A0780122002101E0E1786A
:10217000A078BDE8104005F0EFBF0000210000206E
:1021800020000020FEE70000014801F07AB80000BE
:1021900098030020014801F074B80000F803002003
:1021A0000D4902688A4201D20C4901E00B492031F5
:1021B000D2B21423083AB2FBF3F2436C02F01F02CE
:1021C00023F003031944816404498031C16401216F
:1021D0009140016570470000080402400008024079
:1021E0000179074A02EB81024265054A4432491EE1
:1021F000826501F01F0201219140C1657047000016
:10220000FC080240704772B6FEE7000070B5054654
:1022100005F088FDFF280BD001260024204605F09C
:102220008DFCA87822463146BDE8704005F094BF89
:102230000A49002208784A808A804309CA801046E9
:102240000A8163F345104A8108805C210448FEF747
:1022500028FA002006F020F90026DEE7243A0020C4
:10226000303A002070477047704770477047000051
:102270002DE9F04F044690F858009BB00D464FF002
:10228000000B012812D0012084F85800002717976E
:10229000189720684FF0A048DFF80C91DFF80CA1E8
:1022A000434E404506D13046009608E002201BB060
:1022B000BDE8F08F48450AD15046CDF800A003F0A4
:1022C000DFF80090206803F0DBF840B109E0E06D32
:1022D00040F02000E06584F858700120E7E700989E
:1022E00048B1E06D40F02000E0654FF0010B84F84C
:1022F00058705846DBE72068C446604501D0B042BC
:1023000001D12C4800E02C4829682C4B0029816819
:1023100040F61F7221F4604128D094F8388041EAD9
:102320004831D5F8048041EA08018160216861459F
:1023300001D0B14205D1DCF80810B368C1F3000147
:1023400009E0D9F80810DAF80860C1F30001C6F313
:1023500000069B683143C3F300031943C7D1AB6840
:10236000296819438368934319431BE081602168FE
:10237000614501D0B14205D1DCF80810B368C1F362
:10238000000109E0D9F80810DAF80850C1F300019B
:10239000C5F300059B682943C3F300031943A6D185
:1023A000816891438160A2E700040050000500505D
:1023B00000010050000300500007005000060050CC
:1023C0002DE9F84F00270446009790F85800DFF8F1
:1023D00014840D46B946012810D0012684F85860AF
:1023E000206803F049F858B1E06D40F02000E06546
:1023F000012784F858903846BDE8F88F0220FBE7A3
:10240000D5E900200C23216803EA901319440B6BD3
:1024100000F01F004FF01F0C0CFA00FCC2F38462A6
:1024200023EA0C03824013430B63206803F024F873
:102430008246206803F018F85AEA00013CD1AA68E5
:1024400029682068B2F1004F37D003F025F82068E2
:10245000416921F00041416120686A69C168C1F3A6
:10246000C10149008A402969042931D000EB81006B
:102470002B68016EDFF870C303F0F84301EA0C012A
:102480001343194341F00041016620682A69A96994
:1024900000EB8200026E22F080720A430266297FFE
:1024A00022682869012910D0002102EB8000026E09
:1024B00022F000720A4302667DE0002202F0ECFF87
:1024C0002068416941F00041C5E74FF00071ECE739
:1024D000002102F0C3FF400320684FF0000171D0DB
:1024E00002F0BCFF90FAA0F0B0FA80F12868420335
:1024F0006DD090FAA0F0B0FA80F0814204D10022B1
:102500001146206802F0D7FF0121206802F0A6FFE3
:10251000400320684FF001015CD002F09FFF90FA69
:10252000A0F0B0FA80F12868420358D090FAA0F0E9
:10253000B0FA80F0814204D100220121206802F02B
:10254000BAFF0221206802F089FF400320684FF0A3
:10255000020147D002F082FF90FAA0F0B0FA80F1B9
:102560002868420343D090FAA0F0B0FA80F081428C
:1025700004D100220221206802F09DFF032120687F
:1025800002F06CFF400320684FF0030132D002F0EC
:1025900065FF90FAA0F0B0FA80F1286842032ED0CF
:1025A00090FAA0F0B0FA80F0814204D10022032119
:1025B000206802F080FF206802F05AFF10B3AAE002
:1025C00000E004E002F04AFFC0F384618EE7C0F34C
:1025D000846092E702F042FFC0F38461A3E7C0F396
:1025E0008460A7E702F03AFFC0F38461B8E7C0F364
:1025F0008460BCE702F032FFC0F38461CDE7C0F332
:102600008460D1E721682A7B286851F8B03FC0F385
:10261000120C23EA0C0302F0180C744A22FA0CF292
:10262000024013430B60E968414574D128684103B7
:102630001AD090FAA0F1B1FA81F1491C01F01F0102
:1026400009294FEA403130D8002910D090FAA0F182
:10265000B1FA81F101F1010101F01F0106FA01F661
:1026600008D1C0F3846109E0C0F38461E5E7C0F3F9
:102670008461EFE790FAA0F1B1FA81F101F1010173
:1026800001F01F0146EA816102D1C0F3846003E0DA
:1026900090FAA0F0B0FA80F000F1010000F01F0005
:1026A00000EB400041EA005131E000290DD090FAE2
:1026B000A0F1B1FA81F101F1010101F01F0106FA67
:1026C00001F605D1C0F3846106E0C0F38461F2E74E
:1026D00090FAA0F1B1FA81F101F1010101F01F01BD
:1026E00046EA816102D1C0F3846003E090FAA0F071
:1026F000B0FA80F000F1010000F01F003C4A00EB4E
:10270000400002EB005041EA000141F00071AA686C
:10271000206802F0C1FE37482A6802423FF469AEE1
:1027200020684FF0A04C344B344E354D604501D0FD
:10273000A84201D1194600E031468968DFF8C4801B
:1027400001F0E071424503D0DFF8BC80424521D161
:102750005FEA01281ED4604506D02C4A90427FF4DF
:1027600048AEA84200D0334641F40000996821F0F9
:10277000E07101439960264826490068B0FBF1F0FA
:10278000401C00EB4000800000E0401E009000284C
:10279000FBD12EE6DFF8808042450FD15FEAC118F9
:1027A0000CD4A84202D11D4A9042F2D0604502D01A
:1027B000A84200D0334641F080700CE0DFF8608022
:1027C0004245E6D14A02E4D4A842E2D0604500D0B6
:1027D000334641F48000996821F0E071014399602B
:1027E00007E6000000007F4000F0FF03FFFF070046
:1027F000000020FE00000880000300500007005089
:1028000000010050000021C31000C09000060050DD
:102810000C000020400D0300000052C700050050CE
:10282000000084CB704770472DE9F84F04460068DC
:10283000066845684FF0A048DFF89092404501D007
:10284000484501D1A24800E0A248806800F01F0777
:10285000B0070ED5A8070CD5E06DC00603D4E06D17
:1028600040F40060E0652046FFF7FCFC2168022090
:102870000860DFF864B2DFF864A2700701D568076A
:1028800003D430073FD528073DD5E06DC00603D4FB
:10289000E06D40F40070E065206802F0F5FD60B383
:1028A0002068484501D1414604E0584501D15146D0
:1028B00000E00146814208D03FB1052F05D0092F25
:1028C00003D0484503D1414606E0C16805E05845BC
:1028D00001D1514600E00146C96889040DD4016860
:1028E00009070AD502F0C8FD58B3E06D40F01000AA
:1028F000E065206E40F0010020662046FFF792FF61
:1029000021680C200860B00601D5A80603D4700623
:102910005FD568065DD5E06DC00603D4E06D40F478
:102920000050E0652068C16C11F4C07F1AD000210E
:10293000009102F0A9FD02462068484514D14146A5
:1029400017E02068416821F00C014160E06D20F43F
:102950008070E065E06DC004CFD4E06D40F0010010
:10296000E065CAE70121E3E7584501D1514600E09F
:102970000146814208D03FB1062F05D0072F03D072
:10298000484503D1414606E0C16805E0584501D1FC
:10299000514600E00146C968009BA3B18B0102D5F6
:1029A0008AB18A040FD4026852060CD589020AD46F
:1029B00002F05AFDF0B3E06D40F01000E065206ECB
:1029C00040F0010020662046FFF74DFC21686020A2
:1029D000086030060BD5280609D5E06D40F480303C
:1029E000E065204600F096F9216880200860F00537
:1029F0000CD5E8050AD5E06D40F40030E0652046CE
:102A0000FFF733FC21684FF480700860B0050CD5E7
:102A1000A8050AD5E06D40F48020E0652046FFF768
:102A200025FC21684FF400700860F00631D5E806F7
:102A30002FD500E009E0E06BE8B12068EFB3404536
:102A400001D0484512D1224811E02068416821F0A8
:102A500060014160E06D20F48050E065E06DC005EC
:102A6000B1D4E06D40F00100E065ACE71948806842
:102A700000F4604050B1E06D40F48060E065206E8D
:102A800040F0020020662046FFF7CDFE21681020AE
:102A90000860700517D5680515D5E06D40F48040D5
:102AA000E065206E40F00800206621684FF48060E9
:102AB00008602046BDE8F84F00E001E0FFF7D4BB16
:102AC000C068C007D6E7BDE8F88F000000010050DD
:102AD00000030050000700500005005000040050A3
:102AE000F8B54FF0000504002E46009502D0E06DC9
:102AF00010B107E00120F8BD204600F00DF9266670
:102B000084F8586020688168C1F3407119B1816808
:102B1000744A1140816020688168C1F3007189B9ED
:102B20008168714A114041F0805181606F4870495D
:102B30000068B0FBF1F04000801C00E0401E0090F7
:102B40000028FBD120688168C1F3007141B9E16DB3
:102B500041F01001E165216E41F00101216601257E
:102B600002F08AFCE16DC90600D430B1E06D40F09E
:102B70001000E06501252846F8BDE06D20F4807066
:102B800040F00200E065206802F072FC40BB206863
:102B90004FF0A043574A984201D0904204D199681F
:102BA0009668C1F300010AE053498968534EC1F3A6
:102BB0000001B668C6F300063143514EB668C6F34D
:102BC000000631430CD1984201D0904201D14D48CA
:102BD00000E04D486168826822F47C120A438260FA
:102BE000E168E06B627F0843A16841EA4231084333
:102BF00094F8241040EA0140012904D1218D434A70
:102C000002EB41410843E16A29B101F47871226B7A
:102C1000014342EA01002168CA683D4B1A40024361
:102C2000CA6020680169626B21F040611143016153
:102C3000206802F019FC70BB207F94F838108003E4
:102C400040EA41012068C26844F202039A430A4301
:102C5000C26020690028206801690AD041F48031EF
:102C60000161206850F8C01F22696FF30D01114304
:102C700007E021F480310161206850F8C01F6FF334
:102C80000D01016094F84000012813D0206801690B
:102C900021F001010161606901282068016B19D0F0
:102CA00021F00F010163E06D20F0020040F001000F
:102CB000E06560E7D4E911200243D4E91301084339
:102CC00002432068016940F2FC7399430A4342F0D1
:102CD0000101DFE721F00F02216A491E0A43026366
:102CE000E1E70000C0FFFF5FC0FFFF7F0C00002096
:102CF000400D03000001005000040050000500508A
:102D00000006005000030050000700500000FEFFC6
:102D10000740F0FF704700002DE9F0439BB00546E7
:102D2000142115A8FDF7BDFC54216846FDF7B9FC38
:102D3000574928680026574C03274FF080084FF466
:102D4000806988425DD1C00100908003119068467F
:102D500000F062FD08B1FFF756FAE06C40F4005055
:102D6000E064E06C00F400501A90E06C40F0010068
:102D7000E064E06C00F001001A90E06C40F00400A8
:102D8000E064E06C00F004001A90E06C40F0020097
:102D9000E064E06C179600F002001A90CDE9158708
:102DA000444615A94FF0904000F028FB30201796BC
:102DB000CDE9150715A9384800F020FB0420179627
:102DC000CDE9150715A9354800F018FB354F3448F3
:102DD00038602420C7E90106C7E90364C7E905692B
:102DE000FE6138463E6200F0A9FA08B1FFF70BFA1F
:102DF0006F65002211461220BD6200F075FC1220A2
:102E000041E02949884240D180010090C0031290DE
:102E1000684600F001FD08B1FFF7F5F9E06C40F4F9
:102E20008040E064E06C00F480401A90E06C40F078
:102E30001000E064E06C179600F010001A904FF458
:102E4000F060CDE9150715A9184800F0D7FA154C20
:102E500013486034283020602520C4E90106C4E905
:102E60000368C4E90569E6612046266200F066FA57
:102E700008B1FFF7C8F96C65002211462F20A56242
:102E800000F032FC2F2000F021FC1BB0BDE8F083E5
:102E900000010050001002400008004800040048F3
:102EA0001C0002409803002000040050001000485D
:102EB000704700002DE9F04790460D4604004FF0A2
:102EC000000A0FD075B1607901280ED04FF00109CA
:102ED00084F8059002202071A96808F010060429E2
:102EE00005D049E00120BDE8F0870220FBE700F0B3
:102EF00063FB07465FEA08004FF0030809D021E0B2
:102F000000F05AFBC01B012803D92068406B000465
:102F100010D42068406B0004F2D42168686A086409
:102F200017E000F049FBC01B01280BD92068406B5B
:102F3000002807DA206940F00800206184F8048046
:102F40000320D0E72068406B0028EADB2168686A2C
:102F500048642068816C40F2FF32B2409143AA6A13
:102F6000B240114381642068C16CFF22B24091439A
:102F7000EA6AB2401143C164E869012808D12068B7
:102F8000826B1F21B1408A43296AB140114381639A
:102F90002068C26B0720B0408243A869012803D093
:102FA000022856D06869E8B300206B69A968194304
:102FB00001434FF4807000FA06F39A432B79012BFA
:102FC00000D0002008434FF4007101FA06F39A4341
:102FD0006B79012B00D0002141EA0008286822F417
:102FE0004047022837D00743216808FA06F03843E3
:102FF000C863206801684FF48042B2409143016089
:103000002068026840F6FE71B1408A43E968B14029
:103010001143016020680168C022B2409143016001
:10302000287B00E015E0297CC0F3830001F03C011F
:1030300040EA81112068026E40F60F73B3409A4354
:10304000B1400A43026684F8049000206071504643
:1030500049E70120A9E700F059FE0649884202D954
:1030600047F40047C0E704498842BDD947F4804788
:10307000BAE700000068890900B4C40470472DE96C
:10308000F041044600680668456BB1044FF0040740
:1030900010D5A9040ED52771216941F001012161E4
:1030A000F90241632068016821F4805101602046E3
:1030B000FFF7E4FFB00014D5A80012D527712069EE
:1030C00040F00200206121684FF000504863206802
:1030D000016821F0805101602046BDE8F041FFF712
:1030E000E7BEBDE8F08170B5040003D0207900256B
:1030F00010B105E0012070BD6571204600F008F8B0
:1031000002202071256101202071002070BD000087
:1031100010B586B0044614216846FDF7C2FA154979
:103120002068884223D11448C16C41F48031C164C5
:10313000C16C01F480310591C16C41F00101C164A1
:10314000C06C694600F0010005903020009003201B
:103150000190002002904FF0904000F04FF90022C3
:103160001146362000F0C0FA362000F0AFFA06B063
:1031700010BD0000000800500010024018B50024E7
:10318000009448B10068C46B0090104431B1143011
:1031900000900360002018BD012018BD0830F7E73B
:1031A00010B590F8252000210123022A03D0042124
:1031B000C163012122E00268146824F00E04146047
:1031C000826C146824F4807414600268146824F01B
:1031D0000104146090F84420046C02F01F0203FA0A
:1031E00002F26260D0E913245460426D32B1146877
:1031F00024F480741460D0E91624546080F82530DB
:10320000002280F82420084610BD70B590F82510E3
:10321000002401222346022907D00421C16380F83B
:10322000252080F82430012429E001680D6825F06C
:103230000E050D6001680D6825F001050D60816CBB
:103240000D6825F480750D6090F84410154601F066
:103250001F018A40016C4A60D0E913124A60416D37
:1032600031B10A6822F480720A60D0E916124A600D
:1032700080F8255080F82430816B01B188472046C2
:1032800070BDF0B4016C0B6801680A6890F84440A6
:10329000042504F01F0405FA04F61E4211D0560757
:1032A0000FD50A68920603D40A6822F004020A6065
:1032B00090F8441001F01F018D40016C4D60016BCE
:1032C0001DE0022606FA04F71F424FF0000C4FF0F3
:1032D000010518D0970716D50A68920605D40A6822
:1032E00022F00A020A6080F8255090F8441001F09C
:1032F0001F018E40016C4E6080F824C0C16A002915
:103300001AD0F0BC08470826A6401E4214D0120767
:1033100012D50A6822F00E020A6090F84410026C7E
:1033200001F01F0105FA01F15160C56380F82550D5
:1033300080F824C0416BE2E7F0BC704770B5040030
:103340000CD02B4A20681421904209D2294A024409
:10335000B2FBF1F18900616427490AE0012070BDE8
:10336000234A52420244B2FBF1F1890061642049D0
:1033700008392164022184F82510016847F6F072AB
:103380009143D4E902231A43D4E904352B431A4369
:10339000A3691A43E3691A43236A1A430A43026082
:1033A0002046FEF7FDFEA0680025B0F5804F00D155
:1033B0006560A16C20790860D4E913014160606800
:1033C000401E032808D82046FEF70AFF606D0560FE
:1033D000D4E91601416002E06565A565E565E56330
:1033E000012084F8250084F82450002070BD0000DE
:1033F00008040240F8FFFDBF000002402DE9F84F2D
:10340000DFF888910022A9F1040B03274FF00F0C7D
:1034100009F1040AABF1040EB1E0012595402B40FF
:1034200073D00C7904F00304012C01D0022C15D1C7
:103430008668540007FA04F826EA0806D1F80C80DA
:1034400008FA04F848EA0608C0F808804468AC4363
:103450000D79C5F300159540254345600C79E4438B
:10346000A40708D0C568540007FA04F6B5438E686F
:10347000A6402E43C6600C7904F00304022C11D13F
:10348000D40800EB8406356A5407E40E0CFA04F8FD
:1034900025EA0805D1F8108008FA04F848EA05087A
:1034A000C6F820800568540007FA04F6B5430E7983
:1034B00006F00306A6402E4306604C6814F4403F15
:1034C0005CD0334C256E45F001052566246E22F054
:1034D000030504F0010400942E4C05EB0408D8F811
:1034E00008509407260F0CFA06F4A543B0F1904F4C
:1034F00004D0294CA04203D1012417E0002415E098
:10350000264CA04202D1022410E037E0244CA04215
:1035100001D103240AE0234CA04201D1042405E098
:10352000214CA04201D1052400E00624B4402C43E4
:10353000C8F80840D9F800404D464E689C43F60252
:1035400000D51C432C60DAF8004055464E689C4379
:10355000B60200D51C432C60DBF800405D464E6887
:103560009C43B60300D51C432C60DEF80040754632
:103570004E689C43F60300D51C432C60521C0B681C
:1035800033FA02F47FF449AFBDE8F88F0804014034
:1035900000100240000001400004004800080048FC
:1035A000000C004800100048001400480AB1816176
:1035B00070478162704700000148806870470000D2
:1035C0000000002070B5040011D021684CF6CC40FA
:1035D0000860216845F255500860D4E90001416057
:1035E0002168A0688860FFF7E7FF05460CE001202E
:1035F00070BDFFF7E1FF401B312805D92068C06886
:10360000400701D0032070BD2068C0684007F0D19A
:1036100020680269E1688A4201D0016102E04AF64D
:10362000AA210160002070BD0248816842681144EF
:10363000816070470000002010B50024032000F0D6
:1036400073F80F2000F008F808B1012401E000F041
:1036500025F8204610BD000070B50E4E054600242A
:10366000706898B14FF47A71B1FBF0F00A490968BB
:10367000B1FBF0F000F054FF40B9102D06D200224B
:103680002946501E00F030F8356000E00124204645
:1036900070BD0000000000200C0000200A4882B02D
:1036A000016E41F001010166016E01F0010100911E
:1036B000816D41F080518165806D00F080500090F7
:1036C00002B000F0A1B8000000100240002809DBA1
:1036D00000F01F02012191404009800000F1E0202C
:1036E000C0F8001170470000F0B40E4B1B68C3F324
:1036F0000223C3F10704042C00D904241D1D072D47
:1037000001D2002300E0DB1E012606FA04F56D1E3F
:103710000D409D409E40761E164045EA0601F0BCD5
:1037200003F049BD0CED00E0064A00F00701106807
:103730004FF6FF03184040EA012003490843106098
:10374000704700000CED00E00000FA052B492C4BFF
:103750000A6832214A432B4940B1B0F5007F08681E
:1037600029D020F4C06040F480602CE00868C0F3E9
:103770004120022804D051F8800F20F4807022E00C
:10378000D1F8800020F48070C1F88000086820F42F
:10379000C06040F400700860B2FBF3F0401C00E031
:1037A000401E4A69520501D50028F9D148694005F3
:1037B0000AD503207047C0F34120022806D051F8F3
:1037C000800F40F48070086000207047D1F88000BE
:1037D00040F48070C1F88000086820F4C06040F4B4
:1037E00000700860B2FBF3F0401C00E0401E4A6924
:1037F0005205DBD50028F9D1D8E700000C000020E5
:1038000040420F00007000400248816841F480414E
:1038100081607047007000402DE9F84F0446002693
:103820000068C14D374600035DD5A86D4FF0000913
:10383000C00009D4A86D40F08050A865A86D4FF075
:10384000010900F080500090DFF8E0A2DAF80010E3
:1038500041F48071CAF80010FFF7AEFE804607E021
:10386000FFF7AAFEA0EB0800022801D9032632E0E8
:10387000DAF80000C005F3D56EBBD5F8900010F45F
:10388000407014D0216D814211D0D5F89000D5F848
:10389000901020F4407041F48031C5F89010D5F8B4
:1038A000901021F48031C5F89010C5F89000C00741
:1038B0007ED0FFF781FE804641F2883A05E0FFF7AF
:1038C0007BFEA0EB08015145D0D8D5F890008007C9
:1038D000F5D5002E6CD03746B9F1000F03D0A86D96
:1038E00020F08050A8652078C00707D0D5F8880060
:1038F000616820F003000843C5F88800207880073D
:1039000007D5D5F88800A16820F00C000843C5F859
:1039100088002078400707D5D5F88800E16820F0B6
:1039200030000843C5F888002078000707D5D5F88F
:103930008800216920F0C0000843C5F8880020787D
:10394000C00607D5D5F88800616920F440700843A7
:10395000C5F888002078800607D5D5F88800A169C9
:1039600020F440600843C5F888002078400607D559
:10397000D5F88800E16920F440500843C5F8880074
:103980002078000607D5D5F88800216A20F4404049
:103990000843C5F888002088C00507D5D5F88800F9
:1039A000616A20F440300843C5F88800206800E0D0
:1039B00024E0800307D5D5F89C00A16A20F003001D
:1039C0000843C5F89C002088800507D5D5F88800F5
:1039D000E16A20F440200843C5F8880020884005AB
:1039E00019D5D5F88800216B20F440100843C5F89C
:1039F0008800206BB0F5801F09D00CE0D5F890004E
:103A0000216D20F440700843C5F8900064E7E86831
:103A100040F48010E860208800050FD5D5F88800B4
:103A2000616B20F440000843C5F88800606BB0F576
:103A3000800F03D1E86840F48010E8602088C0045B
:103A40000FD5D5F88800A16B20F040700843C5F869
:103A50008800A06BB0F1807F03D1E86840F480104B
:103A6000E860208881044FF000600ED5D5F88810FA
:103A7000E26B21F040611143C5F88810E16B81428F
:103A800003D1E96841F48011E960218849040ED529
:103A9000D5F88810226C21F040611143C5F88810D8
:103AA000216C814203D1E86840F48010E8602088EE
:103AB00000040FD5D5F88800616C20F04050084311
:103AC000C5F88800606CB0F1805F03D1E86840F40D
:103AD0008030E8602068C0030FD5D5F88800A16C5D
:103AE00020F040400843C5F88800A06CB0F1804F3A
:103AF00003D1E86840F48030E860206840030FD5C7
:103B0000D5F89C00E16C20F440100843C5F89C00F7
:103B1000E06CB0F5001F03D1E86840F48010E86065
:103B20003846BDE8F88F00000010024000700040E9
:103B30002DE9F0470D4604004FF0000725D0DFF8CF
:103B4000AC91D9F8000000F00F00A8420CD2D9F8CF
:103B5000001021F00F012943C9F80010D9F8000026
:103B600000F00F00A84210D12168614EC80741F251
:103B7000883A58D06068DFF87C81032808D0022892
:103B800030682CD0400500282BDB0120BDE8F087F1
:103B900030688001F9D5F06800F00302F068C0F3E6
:103BA0000310401C032A18D0534AB2FBF0F0F2680D
:103BB000C2F306225043F268C2F34162521C520023
:103BC000B0FBF2F0404517D9B06810F0F00F0CD000
:103BD000880711D5A06840B10EE0484AE5E78003A8
:103BE000D1E700F0BDF8404506D9B06820F0F000FC
:103BF00040F08000B0608027B068616820F003006A
:103C00000843B060FFF7D8FC804605E0FFF7D4FC1E
:103C1000A0EB080151453BD8B068616800F00C008A
:103C2000B0EB810FF2D12068810714D5400703D58E
:103C3000B06840F4E060B0602078000705D5B06857
:103C400020F4605040F4E060B060B068A16820F0FB
:103C5000F000084304E0802F03D1B06820F0F000AA
:103C6000B060D9F80010484601F00F01A94217D9F9
:103C70000168C84621F00F0129430160FFF79CFC51
:103C80000746D14606E0FFF797FCC11B494501D91D
:103C900003207BE7D8F8000000F00F00A842F2D123
:103CA0002078400705D5B068E16820F4E06008435B
:103CB000B0602078000706D5B068216920F4605014
:103CC00040EAC100B06000F04BF8B1680C4AC1F3A3
:103CD0000311515C01F01F01C8400A4908600A48FD
:103CE0000068BDE8F047FFF7B7BC000000200240C5
:103CF0000010024000B4C4040024F40000366E0139
:103D0000CC8900080C000020000000200148006859
:103D1000704700000C0000200548064900688968CB
:103D2000054AC1F30221515C01F01F01C8407047F0
:103D30000C00002000100240DC89000805480649FC
:103D400000688968054AC1F3C221515C01F01F0176
:103D5000C84070470C00002000100240DC890008B9
:103D6000184A10B59068C0F38101174801290BD09B
:103D70009168164CC1F38101022906D09168C1F304
:103D80008101032903D0002010BD204610BDD16859
:103D900001F00303D168C1F30311491C032B02D0C6
:103DA000B0FBF1F001E0B4FBF1F0D168C1F3062102
:103DB0004843D168C1F34161491C4900B0FBF1F0AF
:103DC00010BD0000001002400024F40000366E0117
:103DD0002DE9F843040078D02078F54DC00745D090
:103DE000A868E96800F00C0001F003010C2802D07B
:103DF000082817D001E0032914D06068B0F5803F8F
:103E000017D0B0F5A02F286817D020F48030286094
:103E1000286820F4802028606068D8B1FFF7CCFBC8
:103E2000064613E02868800320D560680028D2D0B9
:103E30001CE0286840F48030EDE740F480202860E2
:103E4000F7E7FFF7B9FB801B64286ED8286880036A
:103E5000F7D50BE0FFF7B0FB064604E0FFF7ACFB3D
:103E6000801B6428F1D828688003F7D42078800765
:103E70004BD5A868E96800F00C0001F003010C289C
:103E800002D004280DD001E002290AD0E068002801
:103E900028682BD040F480702860FFF78DFB064621
:103EA00019E02868400502D5E068002893D06868CA
:103EB000217C20F0FE4040EA01606860BD48006857
:103EC000FFF7CAFB002800D11FE06DE1FFF774FB8C
:103ED000801B0228B9D828684005F7D56868217C7E
:103EE00020F0FE4040EA016068600EE020F480703F
:103EF0002860FFF761FB064604E0FFF75DFB801BCF
:103F00000228A2D828684005F7D42078000728D5D1
:103F100060690028D5F8940012D040F00100C5F87F
:103F20009400FFF749FB064605E08FE0FFF744FBEE
:103F3000801B022889D8D5F894008007F6D510E0B8
:103F400020F00100C5F89400FFF736FB064604E0B8
:103F5000FFF732FB801B022878D8D5F89400800741
:103F6000F6D42078400761D5A86D0027C00008D49A
:103F7000A86D40F08050A865A86D012700F0805022
:103F800000908D480168C90511D40168804641F44C
:103F900080710160FFF710FB064604E0FFF70CFBA1
:103FA000801B022852D8D8F80000C005F6D5A068BA
:103FB000012815D00528D5F8900016D020F0010072
:103FC000C5F89000D5F8900020F00400C5F89000E6
:103FD000A06841F28838B8B1FFF7EEFA06460EE065
:103FE000D5F8900040F00100F0E740F00400C5F87B
:103FF0009000F5E7FFF7E0FA811B414526D8D5F898
:1040000090008007F6D50CE0FFF7D6FA064604E0EC
:10401000FFF7D2FA811B414518D8D5F890008007E8
:10402000F6D41FB1A86D20F08050A86520788006D6
:1040300028D5A0690028D5F8980012D040F00100DA
:10404000C5F89800FFF7B8FA064605E072E0FFF7FA
:10405000B3FA801B02286DD8D5F898008007F6D5F2
:1040600010E020F00100C5F89800FFF7A5FA064619
:1040700004E0FFF7A1FA801B02285BD8D5F898006E
:104080008007F6D4E069E8B3A968C1F38101032988
:104090005BD00228286820F08070286003D0FFF7EA
:1040A0008BFA044649E0FFF787FA064604E0FFF77B
:1040B00083FA801B02283DD828688001F7D4F4E9F0
:1040C00008016FF00F0202EB01110843218A52042C
:1040D000490802EB4151A26841EA02210843217DCF
:1040E0004FF07E42490802EB41610843217B40EAE0
:1040F000C160E968314A11400843E860286840F02F
:10410000807000E052E02860E86840F08070E8606D
:10411000FFF752FA044604E0FFF74EFA001B0228AC
:1041200008D828688001F7D540E0FFF745FA001B62
:10413000022802D90320BDE8F88328688001F4D45E
:10414000E8681F490840E86030E00128F3D0E868DB
:10415000226A00F00301914226D1616A00F0F00268
:104160000901103991421FD1A26A00F4FE41B1EB5E
:10417000022F19D194F82C2000F07841B1EBC26FD6
:1041800012D1218E00F4C00249084905A1F50011A1
:10419000914209D194F8341000F0C06049084906F2
:1041A000A1F10071814201D00120C4E70020C2E7E3
:1041B0000010024000000020007000400C809F01B1
:1041C000FCFFEEFE01490220086070471400002049
:1041D00038B5016804464A688868C043430606D576
:1041E000C30704D1D3435B0601D4E16C05E0830728
:1041F00008D4D3431B0605D4216D01B02046BDE889
:1042000030400847830603D5430601D5C30551D482
:10421000D3439B064ED443060AD494F85D30032B57
:1042200049D0236E43F004032366CB688B68009368
:10423000830609D4236E43F0010323668B68009341
:104240000B6823F040030B60C00506D4206E40F0DD
:1042500008002066206880680090206E002829D021
:104260002068416821F0E0014160012084F85D0090
:10427000900701D4D00722D02068416821F00301C3
:104280004160114DA06D40B18563A06DFEF7BDFF8B
:1042900018B1206E40F040002066606D002809D003
:1042A0008563606DFEF7B1FF002803D0206E40F0FB
:1042B0004000206638BDC8688868009038BD204638
:1042C000FFF780FF38BD0000515D000870B50400A5
:1042D00009D0606A002540B125616561A56294F846
:1042E0005D0040B10CE0012070BD6068B0F5827FD8
:1042F000F4D0E561F2E784F85C50204600F05CF809
:10430000022084F85D002068016821F0400101600E
:10431000E0684FF4E062904201D9002101E04FF4DF
:104320008051B0F5706F02D0904200D0A562A08895
:10433000228900F4827002F404421043227C02F0CD
:1043400002021043227D02F001021043228B02F48C
:1043500000721043227F02F03802104394F82020AC
:1043600002F080021043228D02F4005210432268B2
:104370001060A069042202EA104094F8242001F49D
:10438000805102F01002104394F8342002F0080229
:104390001043A28902F47062104308432168486008
:1043A0002068C16921F40061C1612566012084F89B
:1043B0005D00002070BD000070B586B00446142179
:1043C0006846FCF76EF920492068884239D11F48B9
:1043D000016E41F480510166016E01F48051059136
:1043E000C16C41F00101C164C16C01F00101059192
:1043F000C16C41F00201C164C06C022600F00200F1
:1044000005904FF4004000900024CDE9016405259B
:1044100069464FF09040CDE90345FEF7EFFF3820A5
:104420000090CDE9016469460948CDE90345FEF7EE
:10443000E5FF002211462320FFF756F92320FFF75E
:1044400045F906B070BD0000003001400010024088
:10445000000400487047000030B590F85D404568A2
:10446000012C06D0B5F5827F29D185683DBB042C8F
:1044700025D111B30AB303B390F85C40012C1ED0D0
:10448000012480F85C4090F85D40042C02D00524A3
:1044900080F85D400024046681638387C3870264DB
:1044A000A0F84430A0F84630C168B1F5E06F08D9F3
:1044B0001449C1641449016509E0012030BD02209E
:1044C00030BD1249C16412490165022B04D3016851
:1044D0004A6822F4805203E001684A6842F480523C
:1044E0004A6001680A68520603D40A6842F0400232
:1044F0000A6080F85C400068416841F0E00141607A
:10450000002030BDE95B0008855C00081F5C0008E6
:10451000B75C0008014901200860704714000020C2
:1045200010B5401EB0F1807F01D3012010BD4FF0C7
:10453000E02460610F21601702F03DFE0020A061C1
:1045400007202061002010BD7047704770477047FA
:1045500070477047F0B590F83C20012A43D0012500
:1045600080F83C50022280F83D2003685A689C681D
:104570001E4E1F4FDFF87CC0B34203D0BB4201D0B8
:10458000634504D122F4700E4A6842EA0E02DFF855
:1045900068E002EA0E02D1F800E04EEA020EC3F82B
:1045A00004E00268B24212D0B2F1804F0FD0134B38
:1045B0009A420CD0124B9A4209D0124B9A4206D022
:1045C000BA4204D0104B9A4201D0624504D18968A6
:1045D00024F080031943916080F83D50002180F859
:1045E0003C100846F0BD0220F0BD0000002C014048
:1045F00000340140005001408FFFFFFD00040040E7
:1046000000080040000C004000400140704710B519
:10461000040003D094F83D0010B107E0012010BD64
:10462000002084F83C00204600F022F8022084F8A4
:104630003D00211D206801F0D1FD012084F84800D3
:1046400084F83E0084F83F0084F8400084F841007C
:1046500084F8420084F8430084F8440084F845005C
:1046600084F8460084F8470084F83D00002010BD1F
:1046700008B50068144A154990420ED1886D40F083
:1046800010008865886D002200F01000009011462F
:104690003620FFF729F8362010E00D4A904211D15C
:1046A000886D40F020008865886D002200F02000B1
:1046B000009011463720FFF717F83720BDE8084073
:1046C000FFF704B808BD00000010004000100240D1
:1046D0000014004090F83D10012901D001207047DE
:1046E000022180F83D100168CA6842F00102CA60E8
:1046F00000681349884214D0B0F1804F11D011499D
:1047000088420ED0104988420BD01049884208D008
:104710000F49884205D00F49884202D00E4988428D
:1047200007D181680D4A1140062906D0B1F5803FB6
:1047300003D0016841F001010160002070470000D2
:10474000002C01400004004000080040000C004024
:1047500000340140004001400050014007000100CA
:1047600070472DE9F04104460068C66805694FF0BE
:104770000007A90713D5B10711D5F91E0161012062
:104780002077206880698007204602D0FFF7E8FF85
:1047900004E000F0DFF8204600F0B4F9277768075E
:1047A00016D5700714D521686FF004000861022047
:1047B00020772068806910F4407F204602D0FFF700
:1047C000CFFF04E000F0C6F8204600F09BF9277701
:1047D000280715D5300713D521686FF00800086148
:1047E000042020772068C0698007204602D0FFF7A8
:1047F000B7FF04E000F0AEF8204600F083F9277719
:10480000E80616D5F00614D521686FF0100008618F
:10481000082020772068C06910F4407F204602D02D
:10482000FFF79EFF04E000F095F8204600F06AF9DB
:104830002777E80708D0F00706D021686FF001005D
:104840000861204600F05FF9280601D4A80408D5C5
:10485000300606D521686FF4025008612046FFF744
:1048600074FEE80508D5300606D521686FF480701F
:1048700008612046FFF768FE680608D5700606D571
:1048800021686FF040000861204600F03DF9A8065D
:1048900008D5B00606D521686FF0200008612046D3
:1048A000FFF754FEE80208D5F00206D521686FF440
:1048B000801008612046FFF74BFEA80208D5B00221
:1048C00006D521686FF4001008612046FFF73FFE0F
:1048D000680208D5700206D521686FF4800008616F
:1048E0002046FFF736FE28020AD5300208D5216897
:1048F0006FF4000008612046BDE8F041FFF786BE76
:10490000BDE8F08110B586B0044614216846FBF777
:10491000C8FE0E492068884215D10D48C16C41F08F
:104920000101C164C06C002100F001000590082065
:1049300000900220CDE90101CDE9031069464FF056
:104940009040FEF75BFD06B010BD0000000C00407B
:1049500000100240704770B5044690F83C000026F5
:104960000D4601280BD0012084F83C000C2A4AD0C7
:1049700007DC82B1042A20D0082A06D131E00220C7
:1049800070BD102A53D0142A63D00126002084F869
:104990003C00304670BD206801F092FC20688169BF
:1049A00041F0080181612068816921F00401816181
:1049B000206881692A69114311E0206801F0D6FC62
:1049C0002068816941F4006181612068816921F476
:1049D00080618161206881692A6941EA02218161DF
:1049E000D4E7206801F012FD2068C16941F0080198
:1049F000C1612068C16921F00401C1612068C169F9
:104A00002A69114311E0206801F050FD2068C16956
:104A100041F40061C1612068C16921F48061C16114
:104A20002068C1692A6941EA0221C161AEE72068B4
:104A300001F08CFD2068016D41F0080101652068DE
:104A4000016D21F0040101652068016D2A6911439F
:104A500011E0206801F0B6FD2068016D41F40061AD
:104A600001652068016D21F4806101652068016D98
:104A70002A6941EA0221016588E710B5040003D0E4
:104A800094F83D0010B107E0012010BD002084F82B
:104A90003C00204600F022F8022084F83D00211D51
:104AA000206801F09BFB012084F8480084F83E0058
:104AB00084F83F0084F8400084F8410084F8420004
:104AC00084F8430084F8440084F8450084F84600E4
:104AD00084F8470084F83D00002010BD08B5006848
:104AE0000649884208D10648816D41F00801816578
:104AF000806D00F00800009008BD0000000C004030
:104B00000010024070477047704790F884100129E8
:104B100018D0012180F884102421C0F88810016881
:104B20000A680B6823F001030B6022F00051002299
:104B30004266036819602021C0F8881080F884203C
:104B400010467047022070477047704770B50446A2
:104B500090F8840001281DD0012084F884002420CE
:104B6000C4F8880020680568026822F0010202602B
:104B70002068826822F060620A438260204601F069
:104B80006BFD206805602020C4F88800002084F8B0
:104B9000840070BD022070BD70B5044690F884009A
:104BA00001281DD0012084F884002420C4F8880046
:104BB00020680568026822F00102026020688268AD
:104BC00022F060420A438260204601F045FD2068E1
:104BD00005602020C4F88800002084F8840070BD9F
:104BE000022070BD70477047704700002DE9F0410A
:104BF00003680446D86919689A6840F60F05284288
:104C00004FF000054FF002060AD187067ED501F06D
:104C1000200702F0805C57EA0C0777D0616F42E111
:104C2000B64FDFF8DCC2174001EA0C0C57EA0C0C57
:104C30006CD05FEAC07C0CD05FEAC15C09D54FF054
:104C4000010CC3F820C0D4F8903043F00103C4F83D
:104C50009030830709D5D30707D023681E62D4F8A4
:104C6000903043F00403C4F8903043070AD5D307CB
:104C700008D0266804233362D4F8903043F002034E
:104C8000C4F8903003070CD501F020033B4308D053
:104C9000266808233362D4F8903043F00803C4F840
:104CA000903003050BD54B0109D526684FF40063FE
:104CB0003362D4F8903043F02003C4F89030D4F835
:104CC0009030002B3DD0800609D501F0200002F085
:104CD0008051084303D0616F09B120468847D4F85A
:104CE000900021688968490602D410F0280F2AD064
:104CF000204601F095FD2068806840061ED520689A
:104D0000083050E8001F21F0400100E021E040E8B9
:104D10000012002AF3D1D4F8800078B17949816378
:104D2000D4F88000FEF771FA00280AD0D4F8800089
:104D3000816B00E02046BDE8F04108472046FFF7C0
:104D400053FFBDE8F0812046FFF74EFFC4F89050B6
:104D5000F7E7D4F86CC02027BCF1010F7ED15FEAE1
:104D6000C06C7BD55FEAC16C78D5102018622068D2
:104D70008068400651D5D4F880100A685068000455
:104D8000000C3ED0B4F85C3083423AD9A4F85E00FF
:104D90000868006880062CD4206850E8001F21F4C1
:104DA000807140E80012002AF6D12068083050E8EF
:104DB000001F21F0010140E80012002AF5D120680F
:104DC000083050E8001F21F0400140E80012002A9E
:104DD000F5D1C4F88C70E566206850E8001F21F01A
:104DE000100140E80012002AF6D1D4F88000FEF746
:104DF000D7F92667B4F85C00B4F85E10401A81B2A7
:104E000007E0B4F85C1081429BD11068800698D509
:104E100026672046FFF798FE93E7B4F85C00B4F8E5
:104E20005E10401A81B2B4F85E00002889D00029D3
:104E300087D0206850E8002F22F4907240E80023C9
:104E4000002BF6D12D4BDB432068083050E8002FB3
:104E50001A4040E8002CBCF1000F00E00EE0F3D156
:104E6000C4F88C70E5666567206850E8002F22F072
:104E7000100240E80023002BF6D1C9E7C60209D58D
:104E8000560207D54FF4801018622046BDE8F04165
:104E9000FFF7A9BE03060AD501F0800302F4000261
:104EA000134304D0A16F00297FF444AF49E74206C1
:104EB00011D54A060FD52046016851E8002F22F08F
:104EC000400241E80023002BF6D1C0F888708567C6
:104ED00000F007FA35E7020206D54A0004D520465D
:104EE000BDE8F041FFF77EBEC00195D5002993DAF9
:104EF0002046BDE8F041FFF728BE00000100001089
:104F0000200100041168000810B5040003D0D4F893
:104F1000880010B107E0012010BD002084F8840053
:104F2000204600F027F82420C4F888002068016893
:104F300021F001010160A06A10B1204601F0AEFB32
:104F4000204601F0FBFE0128E6D02068416821F4EC
:104F5000904141602068816821F02A0181602068C9
:104F6000016841F0010101602046BDE8104001F0F8
:104F7000F9BB00002DE9F0439BB00446142115A8AD
:104F8000FBF78FFB54216846FBF78BFB5B492068DE
:104F90005B4C0225DFF86C9100264FF00508884233
:104FA00029D10820009004966846FEF735FC08B128
:104FB000FDF729F9A06D40F40020A065A06D00F474
:104FC00000201A90E06C40F00400E064E06C15A949
:104FD00000F004001A904FF4406081E86100CDE9D0
:104FE00018684846FEF70AFA002211463420FEF7F8
:104FF0007BFB34203EE04449042788423FD1102007
:10500000059600906846FEF707FC08B1FDF7FBF82F
:10501000A06D40F48010A065A06D00F480101A907F
:10502000E06C40F00400E064E06C00F004001A90D2
:10503000E06C40F00800E064E06C15A900F00800A6
:105040001A904FF4805081E86100CDE91868444619
:105050004846FEF7D3F9CDE91656CDE91864159701
:1050600015A92A48FEF7CAF9002211463520FEF795
:105070003BFB3520FEF72AFB1BB0BDE8F08324493B
:105080008842F9D1684600970396FEF7C5FB08B140
:10509000FDF7B9F8A06D40F48020A065A06D00F484
:1050A00080201A90E06C40F01000E064E06C00F0AA
:1050B00010001A90E06C40F00200E064E06C15A96A
:1050C00000F002001A904FF4004081E861000724CC
:1050D000CDE918640F48FEF791F915A94FF48060E7
:1050E00081E86100CDE918640B48FEF787F90022DA
:1050F00011462720FEF7F8FA2720BBE7004C0040B6
:10510000001002400008004800500040000C004819
:1051100000480040001000480004004830B4D0F8B7
:105120008C30202B02D0022030BC7047A9B1A2B134
:105130000023C3660A4C0368A3420BD05B681B02C2
:1051400008D5036853E8004F44F0806443E8004505
:10515000002DF6D130BC01F03DBF0120E4E7000096
:105160000080004030B400682B4A0121904216D1E3
:105170002A484268521C4260C268642A07D20378F7
:10518000C46800F11002A354C268521CC260426895
:10519000062A00D3816001222049214836E0214AB5
:1051A000904218D11D48D8304268521C4260C268F3
:1051B000642A07D20378C46800F11002A354C268BD
:1051C000521CC2604268062A00D381601349012242
:1051D000D83115481AE0154A90421AD10F48D838EC
:1051E0004268521C426002780A2A00D18160C1687C
:1051F000642907D20278C3680849C8395A54C1687B
:10520000491CC160054901220948D83930BCFFF763
:1052100085BF30BC70470000004C0040F407002000
:105220006005002000500040F405002000480040C8
:10523000880600202DE9F8430446D0F888001F4670
:1052400015460E46202802D00220BDE8F883AEB1F4
:10525000A5B10020C4F890002120C4F888001834BB
:10526000FEF7AAF9A5878146E58754F8100C183C8B
:105270004FF02008B0F5805F02D003E00120E4E7A2
:10528000206910B13546002610E000250EE080218F
:10529000204601F027FFB8B9D5B115F8010B2168F8
:1052A0008862B4F85600401EA4F85600B4F85600C0
:1052B0004B464FF0000200970028E8D14FF0400124
:1052C000204601F00FFF40B1C4F888800320BCE7FE
:1052D00036F8020BC0F30800E1E7C4F8888000202C
:1052E000B3E77047034A11881288C9B2120A80785E
:1052F00002F032BF4801002008494A884B88120753
:10530000120CC3F30313498842EA032242EA112232
:10531000110AD2B2807802F01FBF000048010020BD
:10532000FEE77047044A51685268C1F30721D2B2C0
:10533000807802F011BF000028000020044A1168A4
:105340001268C1F30721D2B2807802F005BF0000D5
:10535000280000202DE9F04FDFF880A0834687B0B9
:10536000BAF80000401CAAF80000002600242546D8
:1053700018221B496846FBF762F91A4ABAF800304E
:10538000E84632F8021B002011F0010F4FEA5101EC
:1053900009D0641CA4B2A34204D118F815700744C4
:1053A00007F0FF09E7B2401C80B21028ECD36D1C57
:1053B000ADB20C2DE5D3A34202D30021AAF8001010
:1053C000761CB6B20C2ED1D39BF8020007B04A4629
:1053D0003946BDE8F04F02F0BFBE00001C000020BF
:1053E000E4890008243A00200649807891ED080AF3
:1053F000BCEEC00A10EE101A8AB2110AD2B202F044
:10540000ABBE0000C400002010B50B49044608786C
:10541000102804D30878142801D8002204E002F0F0
:1054200081FCFF2806D00122A078BDE810400021B1
:1054300002F092BE0222F7E7200000207047000031
:105440000549096B4CF25032B1FBF2F1C9B20022AE
:10545000807802F081BE0000B03A002000EB8100AD
:10546000006E00F0F84070478068C0F3C0007047DD
:105470008068C0F3000070478068C0F38000704708
:105480008068C0F380007047C06810F4406F01D09E
:105490000020704701207047042303EAD15310B560
:1054A00018444369C1F3045107248C40A3438A4044
:1054B0001343436110BD00EB8100016E21F00041F8
:1054C000114301667047000070B5044602F02AFCE3
:1054D00000281DD1E07801280FD00025284602F0D1
:1054E0006DFA0C4845710C49012008600B48B7EE75
:1054F000000A80ED080A15B103E00125EEE702F08D
:10550000D5FA2279E178A078BDE8704002F024BE97
:1055100070BD000021000020303A0020B03A002089
:1055200070B588B020216846FBF7BBF82C482B49A2
:10553000002401604FF44031C0E901140425856165
:105540000121C460C0E9044104774477056280F812
:105550002440C462046380F83840C46380F840107B
:10556000C0E913410C268022C0E91162FDF7B8FAA8
:1055700008B1FCF748FE1B4800900620CDE9010465
:105580007F200594CDE9030569461548FCF718FF0F
:1055900008B1FCF738FE1448CDE90006694610480A
:1055A000FCF70EFF08B1FCF72EFE10480090122009
:1055B000019069460A48FCF703FF08B1FCF723FE97
:1055C0000B4800901820019069460548FCF7F8FE4A
:1055D000002801D0FCF717FE08B070BD0001005094
:1055E000C00200201000C0100008302E00106032F1
:1055F0002000F01470B58CB0002408940994202188
:1056000068460A94FBF74DF830482F49042501609D
:105610004FF44031C0E9011485610121C460C0E943
:10562000044104774177056280F82440C462046332
:1056300080F83810C46380F84010C0E913410C268C
:105640008022C0E91162FDF74BFA08B1FCF7DBFDDF
:1056500008A91E480894FCF70BFE08B1FCF7D3FD1F
:105660001B4800900620CDE901047F200594CDE978
:10567000030569461548FCF7A3FE08B1FCF7C3FD16
:105680001448CDE9000669461048FCF799FE08B1B8
:10569000FCF7B9FD104800901220019069460B48B4
:1056A000FCF78EFE08B1FCF7AEFD0C480090182008
:1056B000019069460548FCF783FE002801D0FCF7FD
:1056C000A2FD0CB070BD0000000400502C030020AF
:1056D0000040C03A1000C0100400600840002019CB
:1056E00000B58DB030216846FAF7DBFF1549144844
:1056F00008600846FDF7F7FC08B1FCF784FD0020C0
:10570000022100918DF80400CDE904018DF8050017
:1057100002900121CDE9061003900246694609482E
:10572000FDF7C8FB08B1FCF76EFD1022694605487D
:10573000FDF7C0FB002801D0FCF765FD0DB000BDF2
:105740000008005058040020114808B5816C41F051
:1057500004018164816C01F004010091816C41F0CD
:1057600001018164806C002200F00100009011466C
:105770000C20FDF7B9FF0C20FDF7A8FF0022114611
:105780000E20FDF7B1FFBDE808400E20FDF79EBFDB
:10579000001002402DE9F04786B014216846FAF760
:1057A00080FF4B48C16C41F01001C164C16C01F035
:1057B00010010591C16C41F02001C164C16C01F080
:1057C00020010591C16C41F00401C164C16C01F07C
:1057D00004010591C16C41F00101C164C16C01F08B
:1057E00001010591C16C41F00201C164C16C01F07D
:1057F00002010591C16C41F00801C164C06C354FD4
:1058000000F00800059000225C213846FDF7CEFE2E
:10581000DFF8C48000220E214046FDF7C7FE4FF09E
:105820009049002207214846FDF7C0FEDFF8ACA0F2
:105830004FF4E046002231465046FDF7B7FE5C20AB
:10584000009001250024CDE90154694638460394AF
:10585000FDF7D4FD2020CDE90004694638460294C6
:10586000FDF7CCFD6802CDE9000469461C480294AE
:10587000FDF7C4FD0E200090CDE901546946404675
:105880000394FDF7BBFD07200090CDE90154694664
:1058900048460394FDF7B2FDE803CDE900046946EC
:1058A00010480294FDF7AAFD4FF47060CDE90004A2
:1058B000694650460294FDF7A1FD0096CDE90154DA
:1058C000694650460394FDF799FD06B0BDE8F087A0
:1058D000001002400010004800080048000C00487A
:1058E0000014004800040048094810B50749016049
:1058F000012141600A21C1608160FDF763FE00283B
:1059000003D0BDE81040FCF77EBC10BD0030004065
:105910006C040020124810B5104901604FF48271E8
:10592000416000214FF4E062C0E902124FF480228E
:105930000161C0E905123822C0E90721072241624E
:10594000C0E90A12016308214163FEF7BFFC002889
:1059500003D0BDE81040FCF756BC10BD003001403C
:10596000A409002010B58AB00024079408941C21D3
:1059700068460994FAF795FE15481449C0E90014E1
:10598000611EC0E9024104618461FFF776F808B145
:10599000FCF739FC079407A90D480994FEF7DAFDD6
:1059A00008B1FCF730FC6020CDE9000402940C2221
:1059B000694607480494FEF7CEFF08B1FCF723FCC4
:1059C0000348FEF79FFF0AB010BD0000000C004026
:1059D0007C0400203EB500240E48009401940C493C
:1059E000029401602021C0E9011463218461C16037
:1059F000FEF70DFE08B1FCF706FC00946946054869
:105A00000294FEF7A7FD002801D0FCF7FCFB3EBD89
:105A100000100040C80400203EB500240F48009448
:105A200001940D49029401609F21C0E901144FF6D1
:105A3000FF718461C160FEF7EAFD08B1FCF7E3FB8A
:105A40000094694605480294FEF784FD002801D0C1
:105A5000FCF7D9FB3EBD00000014004014050020F7
:105A6000184810B5164901604FF4E131416000213A
:105A700081600C22C160C0E904128161C1610162D0
:105A800041628162FFF740FA08B1FCF7BCFB0021DC
:105A90000C48FFF781F808B1FCF7B5FB0021094875
:105AA000FFF754F808B1FCF7AEFB0648FFF72DF8F6
:105AB000002803D0BDE81040FCF7A5BB10BD0000D6
:105AC000004C004060050020184810B516490160E0
:105AD0004FF4E1314160002181600C22C160C0E9D6
